{
  "_format": "hh-sol-artifact-1",
  "contractName": "Greeter",
  "sourceName": "contracts/Greeter.sol",
  "abi": [
    {
      "inputs": [
        {
          "internalType": "string",
          "name": "_greeting",
          "type": "string"
        },
        {
          "internalType": "string",
          "name": "_name",
          "type": "string"
        },
        {
          "internalType": "string",
          "name": "_color",
          "type": "string"
        },
        {
          "internalType": "uint256",
          "name": "_storageSize",
          "type": "uint256"
        },
        {
          "internalType": "string",
          "name": "_EMEI",
          "type": "string"
        }
      ],
      "stateMutability": "nonpayable",
      "type": "constructor"
    },
    {
      "inputs": [],
      "name": "deposit",
      "outputs": [],
      "stateMutability": "payable",
      "type": "function"
    },
    {
      "inputs": [],
      "name": "greet",
      "outputs": [
        {
          "internalType": "string",
          "name": "",
          "type": "string"
        },
        {
          "internalType": "string",
          "name": "",
          "type": "string"
        },
        {
          "internalType": "string",
          "name": "",
          "type": "string"
        },
        {
          "internalType": "uint256",
          "name": "",
          "type": "uint256"
        },
        {
          "internalType": "string",
          "name": "",
          "type": "string"
        }
      ],
      "stateMutability": "view",
      "type": "function"
    },
    {
      "inputs": [
        {
          "internalType": "string",
          "name": "_greeting",
          "type": "string"
        },
        {
          "internalType": "string",
          "name": "_name",
          "type": "string"
        },
        {
          "internalType": "string",
          "name": "_color",
          "type": "string"
        },
        {
          "internalType": "uint256",
          "name": "_storageSize",
          "type": "uint256"
        },
        {
          "internalType": "string",
          "name": "_EMEI",
          "type": "string"
        }
      ],
      "name": "setGreeting",
      "outputs": [],
      "stateMutability": "nonpayable",
      "type": "function"
    }
  ],
  "bytecode": "0x60806040523480156200001157600080fd5b50604051620010c7380380620010c78339818101604052810190620000379190620002e5565b62000067604051806060016040528060228152602001620010a56022913986620000dd60201b620004091760201c565b84600090805190602001906200007f929190620001ac565b50836001908051906020019062000098929190620001ac565b508260029080519060200190620000b1929190620001ac565b50816003819055508060049080519060200190620000d1929190620001ac565b505050505050620005f7565b6200017f8282604051602401620000f69291906200040c565b6040516020818303038152906040527f4b5c4277000000000000000000000000000000000000000000000000000000007bffffffffffffffffffffffffffffffffffffffffffffffffffffffff19166020820180517bffffffffffffffffffffffffffffffffffffffffffffffffffffffff83818316178352505050506200018360201b60201c565b5050565b60008151905060006a636f6e736f6c652e6c6f679050602083016000808483855afa5050505050565b828054620001ba9062000502565b90600052602060002090601f016020900481019282620001de57600085556200022a565b82601f10620001f957805160ff19168380011785556200022a565b828001600101855582156200022a579182015b82811115620002295782518255916020019190600101906200020c565b5b5090506200023991906200023d565b5090565b5b80821115620002585760008160009055506001016200023e565b5090565b6000620002736200026d8462000470565b62000447565b9050828152602081018484840111156200028c57600080fd5b62000299848285620004cc565b509392505050565b600082601f830112620002b357600080fd5b8151620002c58482602086016200025c565b91505092915050565b600081519050620002df81620005dd565b92915050565b600080600080600060a08688031215620002fe57600080fd5b600086015167ffffffffffffffff8111156200031957600080fd5b6200032788828901620002a1565b955050602086015167ffffffffffffffff8111156200034557600080fd5b6200035388828901620002a1565b945050604086015167ffffffffffffffff8111156200037157600080fd5b6200037f88828901620002a1565b93505060606200039288828901620002ce565b925050608086015167ffffffffffffffff811115620003b057600080fd5b620003be88828901620002a1565b9150509295509295909350565b6000620003d882620004a6565b620003e48185620004b1565b9350620003f6818560208601620004cc565b6200040181620005cc565b840191505092915050565b60006040820190508181036000830152620004288185620003cb565b905081810360208301526200043e8184620003cb565b90509392505050565b60006200045362000466565b905062000461828262000538565b919050565b6000604051905090565b600067ffffffffffffffff8211156200048e576200048d6200059d565b5b6200049982620005cc565b9050602081019050919050565b600081519050919050565b600082825260208201905092915050565b6000819050919050565b60005b83811015620004ec578082015181840152602081019050620004cf565b83811115620004fc576000848401525b50505050565b600060028204905060018216806200051b57607f821691505b602082108114156200053257620005316200056e565b5b50919050565b6200054382620005cc565b810181811067ffffffffffffffff821117156200056557620005646200059d565b5b80604052505050565b7f4e487b7100000000000000000000000000000000000000000000000000000000600052602260045260246000fd5b7f4e487b7100000000000000000000000000000000000000000000000000000000600052604160045260246000fd5b6000601f19601f8301169050919050565b620005e881620004c2565b8114620005f457600080fd5b50565b610a9e80620006076000396000f3fe6080604052600436106100345760003560e01c8063bc31fd9f14610039578063cfae321714610062578063d0e30db014610091575b600080fd5b34801561004557600080fd5b50610060600480360381019061005b919061068d565b61009b565b005b34801561006e57600080fd5b506100776101b2565b60405161008895949392919061082f565b60405180910390f35b610099610407565b005b610148604051806060016040528060238152602001610a4660239139600080546100c49061095c565b80601f01602080910402602001604051908101604052809291908181526020018280546100f09061095c565b801561013d5780601f106101125761010080835404028352916020019161013d565b820191906000526020600020905b81548152906001019060200180831161012057829003601f168201915b5050505050876104a5565b846000908051906020019061015e92919061056d565b50836001908051906020019061017592919061056d565b50826002908051906020019061018c92919061056d565b508160038190555080600490805190602001906101aa92919061056d565b505050505050565b60608060606000606060006001600260035460048480546101d29061095c565b80601f01602080910402602001604051908101604052809291908181526020018280546101fe9061095c565b801561024b5780601f106102205761010080835404028352916020019161024b565b820191906000526020600020905b81548152906001019060200180831161022e57829003601f168201915b5050505050945083805461025e9061095c565b80601f016020809104026020016040519081016040528092919081815260200182805461028a9061095c565b80156102d75780601f106102ac576101008083540402835291602001916102d7565b820191906000526020600020905b8154815290600101906020018083116102ba57829003601f168201915b505050505093508280546102ea9061095c565b80601f01602080910402602001604051908101604052809291908181526020018280546103169061095c565b80156103635780601f1061033857610100808354040283529160200191610363565b820191906000526020600020905b81548152906001019060200180831161034657829003601f168201915b505050505092508080546103769061095c565b80601f01602080910402602001604051908101604052809291908181526020018280546103a29061095c565b80156103ef5780601f106103c4576101008083540402835291602001916103ef565b820191906000526020600020905b8154815290600101906020018083116103d257829003601f168201915b50505050509050945094509450945094509091929394565b565b6104a1828260405160240161041f9291906107ac565b6040516020818303038152906040527f4b5c4277000000000000000000000000000000000000000000000000000000007bffffffffffffffffffffffffffffffffffffffffffffffffffffffff19166020820180517bffffffffffffffffffffffffffffffffffffffffffffffffffffffff8381831617835250505050610544565b5050565b61053f8383836040516024016104bd939291906107e3565b6040516020818303038152906040527f2ced7cef000000000000000000000000000000000000000000000000000000007bffffffffffffffffffffffffffffffffffffffffffffffffffffffff19166020820180517bffffffffffffffffffffffffffffffffffffffffffffffffffffffff8381831617835250505050610544565b505050565b60008151905060006a636f6e736f6c652e6c6f679050602083016000808483855afa5050505050565b8280546105799061095c565b90600052602060002090601f01602090048101928261059b57600085556105e2565b82601f106105b457805160ff19168380011785556105e2565b828001600101855582156105e2579182015b828111156105e15782518255916020019190600101906105c6565b5b5090506105ef91906105f3565b5090565b5b8082111561060c5760008160009055506001016105f4565b5090565b600061062361061e846108c3565b61089e565b90508281526020810184848401111561063b57600080fd5b61064684828561091a565b509392505050565b600082601f83011261065f57600080fd5b813561066f848260208601610610565b91505092915050565b60008135905061068781610a2e565b92915050565b600080600080600060a086880312156106a557600080fd5b600086013567ffffffffffffffff8111156106bf57600080fd5b6106cb8882890161064e565b955050602086013567ffffffffffffffff8111156106e857600080fd5b6106f48882890161064e565b945050604086013567ffffffffffffffff81111561071157600080fd5b61071d8882890161064e565b935050606061072e88828901610678565b925050608086013567ffffffffffffffff81111561074b57600080fd5b6107578882890161064e565b9150509295509295909350565b600061076f826108f4565b61077981856108ff565b9350610789818560208601610929565b61079281610a1d565b840191505092915050565b6107a681610910565b82525050565b600060408201905081810360008301526107c68185610764565b905081810360208301526107da8184610764565b90509392505050565b600060608201905081810360008301526107fd8186610764565b905081810360208301526108118185610764565b905081810360408301526108258184610764565b9050949350505050565b600060a08201905081810360008301526108498188610764565b9050818103602083015261085d8187610764565b905081810360408301526108718186610764565b9050610880606083018561079d565b81810360808301526108928184610764565b90509695505050505050565b60006108a86108b9565b90506108b4828261098e565b919050565b6000604051905090565b600067ffffffffffffffff8211156108de576108dd6109ee565b5b6108e782610a1d565b9050602081019050919050565b600081519050919050565b600082825260208201905092915050565b6000819050919050565b82818337600083830152505050565b60005b8381101561094757808201518184015260208101905061092c565b83811115610956576000848401525b50505050565b6000600282049050600182168061097457607f821691505b60208210811415610988576109876109bf565b5b50919050565b61099782610a1d565b810181811067ffffffffffffffff821117156109b6576109b56109ee565b5b80604052505050565b7f4e487b7100000000000000000000000000000000000000000000000000000000600052602260045260246000fd5b7f4e487b7100000000000000000000000000000000000000000000000000000000600052604160045260246000fd5b6000601f19601f8301169050919050565b610a3781610910565b8114610a4257600080fd5b5056fe4368616e67696e67206772656574696e672066726f6d202725732720746f2027257327a26469706673582212206b9c4f43f71f1f1294c58bd566aa346858d39d5ac0184e4fa7d2ae7def92820e64736f6c634300080400334465706c6f79696e67206120477265657465722077697468206772656574696e673a",
  "linkReferences": {},
  "deployedLinkReferences": {}
}