{
  "_format": "hh-sol-artifact-1",
  "contractName": "Product",
  "sourceName": "contracts/Greeter.sol",
  "abi": [
    {
      "anonymous": false,
      "inputs": [
        {
          "indexed": false,
          "internalType": "uint256",
          "name": "id",
          "type": "uint256"
        },
        {
          "indexed": false,
          "internalType": "string",
          "name": "name",
          "type": "string"
        },
        {
          "indexed": false,
          "internalType": "string",
          "name": "emei",
          "type": "string"
        },
        {
          "indexed": false,
          "internalType": "string",
          "name": "color",
          "type": "string"
        },
        {
          "indexed": false,
          "internalType": "string",
          "name": "size",
          "type": "string"
        },
        {
          "indexed": false,
          "internalType": "uint256",
          "name": "price",
          "type": "uint256"
        },
        {
          "indexed": false,
          "internalType": "uint256",
          "name": "timestamp",
          "type": "uint256"
        }
      ],
      "name": "ProductAdded",
      "type": "event"
    },
    {
      "anonymous": false,
      "inputs": [
        {
          "indexed": false,
          "internalType": "uint256",
          "name": "id",
          "type": "uint256"
        }
      ],
      "name": "ProductAuthenticated",
      "type": "event"
    },
    {
      "anonymous": false,
      "inputs": [
        {
          "indexed": false,
          "internalType": "uint256",
          "name": "id",
          "type": "uint256"
        }
      ],
      "name": "ProductRemoved",
      "type": "event"
    },
    {
      "stateMutability": "payable",
      "type": "fallback"
    },
    {
      "inputs": [
        {
          "internalType": "uint256",
          "name": "id",
          "type": "uint256"
        },
        {
          "internalType": "string",
          "name": "name",
          "type": "string"
        },
        {
          "internalType": "string",
          "name": "emei",
          "type": "string"
        },
        {
          "internalType": "string",
          "name": "color",
          "type": "string"
        },
        {
          "internalType": "string",
          "name": "size",
          "type": "string"
        },
        {
          "internalType": "uint256",
          "name": "price",
          "type": "uint256"
        }
      ],
      "name": "addProduct",
      "outputs": [],
      "stateMutability": "nonpayable",
      "type": "function"
    },
    {
      "inputs": [
        {
          "internalType": "uint256",
          "name": "id",
          "type": "uint256"
        }
      ],
      "name": "authenticateProduct",
      "outputs": [
        {
          "internalType": "bool",
          "name": "",
          "type": "bool"
        }
      ],
      "stateMutability": "nonpayable",
      "type": "function"
    },
    {
      "inputs": [],
      "name": "getAuthenticationCounter",
      "outputs": [
        {
          "internalType": "uint256",
          "name": "",
          "type": "uint256"
        }
      ],
      "stateMutability": "view",
      "type": "function"
    },
    {
      "inputs": [
        {
          "internalType": "uint256",
          "name": "id",
          "type": "uint256"
        }
      ],
      "name": "getProduct",
      "outputs": [
        {
          "internalType": "string",
          "name": "",
          "type": "string"
        },
        {
          "internalType": "string",
          "name": "",
          "type": "string"
        },
        {
          "internalType": "string",
          "name": "",
          "type": "string"
        },
        {
          "internalType": "string",
          "name": "",
          "type": "string"
        },
        {
          "internalType": "uint256",
          "name": "",
          "type": "uint256"
        },
        {
          "internalType": "uint256",
          "name": "",
          "type": "uint256"
        }
      ],
      "stateMutability": "view",
      "type": "function"
    },
    {
      "inputs": [],
      "name": "getProductCount",
      "outputs": [
        {
          "internalType": "uint256",
          "name": "",
          "type": "uint256"
        }
      ],
      "stateMutability": "view",
      "type": "function"
    },
    {
      "inputs": [],
      "name": "getProductIds",
      "outputs": [
        {
          "internalType": "uint256[]",
          "name": "",
          "type": "uint256[]"
        }
      ],
      "stateMutability": "view",
      "type": "function"
    },
    {
      "inputs": [
        {
          "internalType": "uint256",
          "name": "id",
          "type": "uint256"
        }
      ],
      "name": "removeProduct",
      "outputs": [],
      "stateMutability": "nonpayable",
      "type": "function"
    },
    {
      "inputs": [
        {
          "internalType": "uint256",
          "name": "id",
          "type": "uint256"
        },
        {
          "internalType": "string",
          "name": "name",
          "type": "string"
        },
        {
          "internalType": "string",
          "name": "emei",
          "type": "string"
        },
        {
          "internalType": "string",
          "name": "color",
          "type": "string"
        },
        {
          "internalType": "string",
          "name": "size",
          "type": "string"
        },
        {
          "internalType": "uint256",
          "name": "price",
          "type": "uint256"
        }
      ],
      "name": "updateProduct",
      "outputs": [],
      "stateMutability": "nonpayable",
      "type": "function"
    },
    {
      "stateMutability": "payable",
      "type": "receive"
    }
  ],
  "bytecode": "0x60806040526000600255600060035534801561001a57600080fd5b506114f38061002a6000396000f3fe60806040526004361061007f5760003560e01c8063b9db15b41161004e578063b9db15b414610169578063bdd01d23146101ab578063c1ccd96e146101d6578063fd77d9bc1461021357610086565b806306c61343146100c157806347428e7b146100ea5780634a348da9146101155780635ee95cae1461014057610086565b3661008657005b6040517f08c379a00000000000000000000000000000000000000000000000000000000081526004016100b89061113b565b60405180910390fd5b3480156100cd57600080fd5b506100e860048036038101906100e39190610d90565b61023c565b005b3480156100f657600080fd5b506100ff6103f0565b60405161010c9190611061565b60405180910390f35b34801561012157600080fd5b5061012a610448565b604051610137919061117b565b60405180910390f35b34801561014c57600080fd5b5061016760048036038101906101629190610d67565b610452565b005b34801561017557600080fd5b50610190600480360381019061018b9190610d67565b6106c1565b6040516101a29695949392919061109e565b60405180910390f35b3480156101b757600080fd5b506101c06109e8565b6040516101cd919061117b565b60405180910390f35b3480156101e257600080fd5b506101fd60048036038101906101f89190610d67565b6109f2565b60405161020a9190611083565b60405180910390f35b34801561021f57600080fd5b5061023a60048036038101906102359190610d90565b610a93565b005b60008060008881526020019081526020016000206004015414610294576040517f08c379a000000000000000000000000000000000000000000000000000000000815260040161028b9061111b565b60405180910390fd5b60004290506040518060c001604052808781526020018681526020018581526020018481526020018381526020018281525060008089815260200190815260200160002060008201518160000190805190602001906102f4929190610c07565b506020820151816001019080519060200190610311929190610c07565b50604082015181600201908051906020019061032e929190610c07565b50606082015181600301908051906020019061034b929190610c07565b506080820151816004015560a0820151816005015590505060018790806001815401808255809150506001900390600052602060002001600090919091909150556002600081548092919061039f906113bf565b91905055507fc095bb55c137c645af0208a55068dc614c53a8fcf828b01893ad60d0d6b9397e878787878787876040516103df9796959493929190611196565b60405180910390a150505050505050565b6060600180548060200260200160405190810160405280929190818152602001828054801561043e57602002820191906000526020600020905b81548152602001906001019080831161042a575b5050505050905090565b6000600254905090565b60008060008381526020019081526020016000206004015414156104ab576040517f08c379a00000000000000000000000000000000000000000000000000000000081526004016104a29061115b565b60405180910390fd5b600080828152602001908152602001600020600080820160006104ce9190610c8d565b6001820160006104de9190610c8d565b6002820160006104ee9190610c8d565b6003820160006104fe9190610c8d565b60048201600090556005820160009055505060005b60018054905081101561066e57816001828154811061055b577f4e487b7100000000000000000000000000000000000000000000000000000000600052603260045260246000fd5b9060005260206000200154141561065b57600180808054905061057e91906112d7565b815481106105b5577f4e487b7100000000000000000000000000000000000000000000000000000000600052603260045260246000fd5b9060005260206000200154600182815481106105fa577f4e487b7100000000000000000000000000000000000000000000000000000000600052603260045260246000fd5b90600052602060002001819055506001805480610640577f4e487b7100000000000000000000000000000000000000000000000000000000600052603160045260246000fd5b6001900381819060005260206000200160009055905561066e565b8080610666906113bf565b915050610513565b506002600081548092919061068290611363565b91905055507f07015631cff457b5b13492c2045e70c6305a0a4aa773e432e79abbe2cf52c1eb816040516106b6919061117b565b60405180910390a150565b6060806060806000806000806000898152602001908152602001600020600401541415610723576040517f08c379a000000000000000000000000000000000000000000000000000000000815260040161071a9061115b565b60405180910390fd5b6000808881526020019081526020016000206000016000808981526020019081526020016000206001016000808a81526020019081526020016000206002016000808b81526020019081526020016000206003016000808c8152602001908152602001600020600401546000808d8152602001908152602001600020600501548580546107af9061138d565b80601f01602080910402602001604051908101604052809291908181526020018280546107db9061138d565b80156108285780601f106107fd57610100808354040283529160200191610828565b820191906000526020600020905b81548152906001019060200180831161080b57829003601f168201915b5050505050955084805461083b9061138d565b80601f01602080910402602001604051908101604052809291908181526020018280546108679061138d565b80156108b45780601f10610889576101008083540402835291602001916108b4565b820191906000526020600020905b81548152906001019060200180831161089757829003601f168201915b505050505094508380546108c79061138d565b80601f01602080910402602001604051908101604052809291908181526020018280546108f39061138d565b80156109405780601f1061091557610100808354040283529160200191610940565b820191906000526020600020905b81548152906001019060200180831161092357829003601f168201915b505050505093508280546109539061138d565b80601f016020809104026020016040519081016040528092919081815260200182805461097f9061138d565b80156109cc5780601f106109a1576101008083540402835291602001916109cc565b820191906000526020600020905b8154815290600101906020018083116109af57829003601f168201915b5050505050925095509550955095509550955091939550919395565b6000600354905090565b600080600090505b600180549050811015610a88578260018281548110610a42577f4e487b7100000000000000000000000000000000000000000000000000000000600052603260045260246000fd5b90600052602060002001541415610a755760036000815480929190610a66906113bf565b91905055506001915050610a8e565b8080610a80906113bf565b9150506109fa565b50600090505b919050565b6000806000888152602001908152602001600020600401541415610aec576040517f08c379a0000000000000000000000000000000000000000000000000000000008152600401610ae39061115b565b60405180910390fd5b60004290506040518060c00160405280878152602001868152602001858152602001848152602001838152602001828152506000808981526020019081526020016000206000820151816000019080519060200190610b4c929190610c07565b506020820151816001019080519060200190610b69929190610c07565b506040820151816002019080519060200190610b86929190610c07565b506060820151816003019080519060200190610ba3929190610c07565b506080820151816004015560a082015181600501559050507fc095bb55c137c645af0208a55068dc614c53a8fcf828b01893ad60d0d6b9397e87878787878787604051610bf69796959493929190611196565b60405180910390a150505050505050565b828054610c139061138d565b90600052602060002090601f016020900481019282610c355760008555610c7c565b82601f10610c4e57805160ff1916838001178555610c7c565b82800160010185558215610c7c579182015b82811115610c7b578251825591602001919060010190610c60565b5b509050610c899190610ccd565b5090565b508054610c999061138d565b6000825580601f10610cab5750610cca565b601f016020900490600052602060002090810190610cc99190610ccd565b5b50565b5b80821115610ce6576000816000905550600101610cce565b5090565b6000610cfd610cf884611252565b611221565b905082815260208101848484011115610d1557600080fd5b610d20848285611321565b509392505050565b600082601f830112610d3957600080fd5b8135610d49848260208601610cea565b91505092915050565b600081359050610d61816114a6565b92915050565b600060208284031215610d7957600080fd5b6000610d8784828501610d52565b91505092915050565b60008060008060008060c08789031215610da957600080fd5b6000610db789828a01610d52565b965050602087013567ffffffffffffffff811115610dd457600080fd5b610de089828a01610d28565b955050604087013567ffffffffffffffff811115610dfd57600080fd5b610e0989828a01610d28565b945050606087013567ffffffffffffffff811115610e2657600080fd5b610e3289828a01610d28565b935050608087013567ffffffffffffffff811115610e4f57600080fd5b610e5b89828a01610d28565b92505060a0610e6c89828a01610d52565b9150509295509295509295565b6000610e858383611043565b60208301905092915050565b6000610e9c82611292565b610ea681856112b5565b9350610eb183611282565b8060005b83811015610ee2578151610ec98882610e79565b9750610ed4836112a8565b925050600181019050610eb5565b5085935050505092915050565b610ef88161130b565b82525050565b6000610f098261129d565b610f1381856112c6565b9350610f23818560208601611330565b610f2c81611495565b840191505092915050565b6000610f446027836112c6565b91507f50726f647563742077697468207468652073616d6520494420616c726561647960008301527f20657869737473000000000000000000000000000000000000000000000000006020830152604082019050919050565b6000610faa6013836112c6565b91507f496e76616c6964207472616e73616374696f6e000000000000000000000000006000830152602082019050919050565b6000610fea6028836112c6565b91507f50726f6475637420776974682074686520676976656e20494420646f6573206e60008301527f6f742065786973740000000000000000000000000000000000000000000000006020830152604082019050919050565b61104c81611317565b82525050565b61105b81611317565b82525050565b6000602082019050818103600083015261107b8184610e91565b905092915050565b60006020820190506110986000830184610eef565b92915050565b600060c08201905081810360008301526110b88189610efe565b905081810360208301526110cc8188610efe565b905081810360408301526110e08187610efe565b905081810360608301526110f48186610efe565b90506111036080830185611052565b61111060a0830184611052565b979650505050505050565b6000602082019050818103600083015261113481610f37565b9050919050565b6000602082019050818103600083015261115481610f9d565b9050919050565b6000602082019050818103600083015261117481610fdd565b9050919050565b60006020820190506111906000830184611052565b92915050565b600060e0820190506111ab600083018a611052565b81810360208301526111bd8189610efe565b905081810360408301526111d18188610efe565b905081810360608301526111e58187610efe565b905081810360808301526111f98186610efe565b905061120860a0830185611052565b61121560c0830184611052565b98975050505050505050565b6000604051905081810181811067ffffffffffffffff8211171561124857611247611466565b5b8060405250919050565b600067ffffffffffffffff82111561126d5761126c611466565b5b601f19601f8301169050602081019050919050565b6000819050602082019050919050565b600081519050919050565b600081519050919050565b6000602082019050919050565b600082825260208201905092915050565b600082825260208201905092915050565b60006112e282611317565b91506112ed83611317565b925082821015611300576112ff611408565b5b828203905092915050565b60008115159050919050565b6000819050919050565b82818337600083830152505050565b60005b8381101561134e578082015181840152602081019050611333565b8381111561135d576000848401525b50505050565b600061136e82611317565b9150600082141561138257611381611408565b5b600182039050919050565b600060028204905060018216806113a557607f821691505b602082108114156113b9576113b8611437565b5b50919050565b60006113ca82611317565b91507fffffffffffffffffffffffffffffffffffffffffffffffffffffffffffffffff8214156113fd576113fc611408565b5b600182019050919050565b7f4e487b7100000000000000000000000000000000000000000000000000000000600052601160045260246000fd5b7f4e487b7100000000000000000000000000000000000000000000000000000000600052602260045260246000fd5b7f4e487b7100000000000000000000000000000000000000000000000000000000600052604160045260246000fd5b6000601f19601f8301169050919050565b6114af81611317565b81146114ba57600080fd5b5056fea2646970667358221220832ee6882221adafe5ab90063a3065ccab5dc7c822d83611b8f02cd59d565cd864736f6c63430008000033",
  "linkReferences": {},
  "deployedLinkReferences": {}
}