{
  "_format": "hh-sol-artifact-1",
  "contractName": "Product",
  "sourceName": "contracts/Greeter.sol",
  "abi": [
    {
      "anonymous": false,
      "inputs": [
        {
          "indexed": false,
          "internalType": "uint256",
          "name": "id",
          "type": "uint256"
        },
        {
          "indexed": false,
          "internalType": "string",
          "name": "name",
          "type": "string"
        },
        {
          "indexed": false,
          "internalType": "string",
          "name": "emei",
          "type": "string"
        },
        {
          "indexed": false,
          "internalType": "string",
          "name": "color",
          "type": "string"
        },
        {
          "indexed": false,
          "internalType": "string",
          "name": "size",
          "type": "string"
        },
        {
          "indexed": false,
          "internalType": "uint256",
          "name": "price",
          "type": "uint256"
        }
      ],
      "name": "ProductAdded",
      "type": "event"
    },
    {
      "anonymous": false,
      "inputs": [
        {
          "indexed": false,
          "internalType": "uint256",
          "name": "id",
          "type": "uint256"
        }
      ],
      "name": "ProductRemoved",
      "type": "event"
    },
    {
      "stateMutability": "payable",
      "type": "fallback"
    },
    {
      "inputs": [
        {
          "internalType": "uint256",
          "name": "id",
          "type": "uint256"
        },
        {
          "internalType": "string",
          "name": "name",
          "type": "string"
        },
        {
          "internalType": "string",
          "name": "emei",
          "type": "string"
        },
        {
          "internalType": "string",
          "name": "color",
          "type": "string"
        },
        {
          "internalType": "string",
          "name": "size",
          "type": "string"
        },
        {
          "internalType": "uint256",
          "name": "price",
          "type": "uint256"
        }
      ],
      "name": "addProduct",
      "outputs": [],
      "stateMutability": "nonpayable",
      "type": "function"
    },
    {
      "inputs": [
        {
          "internalType": "uint256",
          "name": "id",
          "type": "uint256"
        }
      ],
      "name": "getProduct",
      "outputs": [
        {
          "internalType": "string",
          "name": "",
          "type": "string"
        },
        {
          "internalType": "string",
          "name": "",
          "type": "string"
        },
        {
          "internalType": "string",
          "name": "",
          "type": "string"
        },
        {
          "internalType": "string",
          "name": "",
          "type": "string"
        },
        {
          "internalType": "uint256",
          "name": "",
          "type": "uint256"
        }
      ],
      "stateMutability": "view",
      "type": "function"
    },
    {
      "inputs": [],
      "name": "getProductCount",
      "outputs": [
        {
          "internalType": "uint256",
          "name": "",
          "type": "uint256"
        }
      ],
      "stateMutability": "view",
      "type": "function"
    },
    {
      "inputs": [
        {
          "internalType": "uint256",
          "name": "id",
          "type": "uint256"
        }
      ],
      "name": "removeProduct",
      "outputs": [],
      "stateMutability": "nonpayable",
      "type": "function"
    },
    {
      "inputs": [
        {
          "internalType": "uint256",
          "name": "id",
          "type": "uint256"
        },
        {
          "internalType": "string",
          "name": "name",
          "type": "string"
        },
        {
          "internalType": "string",
          "name": "emei",
          "type": "string"
        },
        {
          "internalType": "string",
          "name": "color",
          "type": "string"
        },
        {
          "internalType": "string",
          "name": "size",
          "type": "string"
        },
        {
          "internalType": "uint256",
          "name": "price",
          "type": "uint256"
        }
      ],
      "name": "updateProduct",
      "outputs": [],
      "stateMutability": "nonpayable",
      "type": "function"
    },
    {
      "stateMutability": "payable",
      "type": "receive"
    }
  ],
  "bytecode": "0x6080604052600060015534801561001557600080fd5b50610feb806100256000396000f3fe60806040526004361061004e5760003560e01c806306c61343146100905780634a348da9146100b95780635ee95cae146100e4578063b9db15b41461010d578063fd77d9bc1461014e57610055565b3661005557005b6040517f08c379a000000000000000000000000000000000000000000000000000000000815260040161008790610cba565b60405180910390fd5b34801561009c57600080fd5b506100b760048036038101906100b291906109ee565b610177565b005b3480156100c557600080fd5b506100ce6102ea565b6040516100db9190610cfa565b60405180910390f35b3480156100f057600080fd5b5061010b600480360381019061010691906109c5565b6102f4565b005b34801561011957600080fd5b50610134600480360381019061012f91906109c5565b6103fc565b604051610145959493929190610c2b565b60405180910390f35b34801561015a57600080fd5b50610175600480360381019061017091906109ee565b610709565b005b600080600088815260200190815260200160002060040154146101cf576040517f08c379a00000000000000000000000000000000000000000000000000000000081526004016101c690610c9a565b60405180910390fd5b6040518060a00160405280868152602001858152602001848152602001838152602001828152506000808881526020019081526020016000206000820151816000019080519060200190610224929190610865565b506020820151816001019080519060200190610241929190610865565b50604082015181600201908051906020019061025e929190610865565b50606082015181600301908051906020019061027b929190610865565b50608082015181600401559050506001600081548092919061029c90610eb7565b91905055507fc80d8977eb21bc7ae81efad32286b6030afbbf2efdb146c4949d55849fa267078686868686866040516102da96959493929190610d15565b60405180910390a1505050505050565b6000600154905090565b600080600083815260200190815260200160002060040154141561034d576040517f08c379a000000000000000000000000000000000000000000000000000000000815260040161034490610cda565b60405180910390fd5b6000808281526020019081526020016000206000808201600061037091906108eb565b60018201600061038091906108eb565b60028201600061039091906108eb565b6003820160006103a091906108eb565b60048201600090555050600160008154809291906103bd90610e5b565b91905055507f07015631cff457b5b13492c2045e70c6305a0a4aa773e432e79abbe2cf52c1eb816040516103f19190610cfa565b60405180910390a150565b60608060608060008060008088815260200190815260200160002060040154141561045c576040517f08c379a000000000000000000000000000000000000000000000000000000000815260040161045390610cda565b60405180910390fd5b6000808781526020019081526020016000206000016000808881526020019081526020016000206001016000808981526020019081526020016000206002016000808a81526020019081526020016000206003016000808b8152602001908152602001600020600401548480546104d290610e85565b80601f01602080910402602001604051908101604052809291908181526020018280546104fe90610e85565b801561054b5780601f106105205761010080835404028352916020019161054b565b820191906000526020600020905b81548152906001019060200180831161052e57829003601f168201915b5050505050945083805461055e90610e85565b80601f016020809104026020016040519081016040528092919081815260200182805461058a90610e85565b80156105d75780601f106105ac576101008083540402835291602001916105d7565b820191906000526020600020905b8154815290600101906020018083116105ba57829003601f168201915b505050505093508280546105ea90610e85565b80601f016020809104026020016040519081016040528092919081815260200182805461061690610e85565b80156106635780601f1061063857610100808354040283529160200191610663565b820191906000526020600020905b81548152906001019060200180831161064657829003601f168201915b5050505050925081805461067690610e85565b80601f01602080910402602001604051908101604052809291908181526020018280546106a290610e85565b80156106ef5780601f106106c4576101008083540402835291602001916106ef565b820191906000526020600020905b8154815290600101906020018083116106d257829003601f168201915b505050505091509450945094509450945091939590929450565b6000806000888152602001908152602001600020600401541415610762576040517f08c379a000000000000000000000000000000000000000000000000000000000815260040161075990610cda565b60405180910390fd5b6040518060a001604052808681526020018581526020018481526020018381526020018281525060008088815260200190815260200160002060008201518160000190805190602001906107b7929190610865565b5060208201518160010190805190602001906107d4929190610865565b5060408201518160020190805190602001906107f1929190610865565b50606082015181600301908051906020019061080e929190610865565b50608082015181600401559050507fc80d8977eb21bc7ae81efad32286b6030afbbf2efdb146c4949d55849fa2670786868686868660405161085596959493929190610d15565b60405180910390a1505050505050565b82805461087190610e85565b90600052602060002090601f01602090048101928261089357600085556108da565b82601f106108ac57805160ff19168380011785556108da565b828001600101855582156108da579182015b828111156108d95782518255916020019190600101906108be565b5b5090506108e7919061092b565b5090565b5080546108f790610e85565b6000825580601f106109095750610928565b601f016020900490600052602060002090810190610927919061092b565b5b50565b5b8082111561094457600081600090555060010161092c565b5090565b600061095b61095684610dc3565b610d92565b90508281526020810184848401111561097357600080fd5b61097e848285610e19565b509392505050565b600082601f83011261099757600080fd5b81356109a7848260208601610948565b91505092915050565b6000813590506109bf81610f9e565b92915050565b6000602082840312156109d757600080fd5b60006109e5848285016109b0565b91505092915050565b60008060008060008060c08789031215610a0757600080fd5b6000610a1589828a016109b0565b965050602087013567ffffffffffffffff811115610a3257600080fd5b610a3e89828a01610986565b955050604087013567ffffffffffffffff811115610a5b57600080fd5b610a6789828a01610986565b945050606087013567ffffffffffffffff811115610a8457600080fd5b610a9089828a01610986565b935050608087013567ffffffffffffffff811115610aad57600080fd5b610ab989828a01610986565b92505060a0610aca89828a016109b0565b9150509295509295509295565b6000610ae282610df3565b610aec8185610dfe565b9350610afc818560208601610e28565b610b0581610f8d565b840191505092915050565b6000610b1d602783610dfe565b91507f50726f647563742077697468207468652073616d6520494420616c726561647960008301527f20657869737473000000000000000000000000000000000000000000000000006020830152604082019050919050565b6000610b83601383610dfe565b91507f496e76616c6964207472616e73616374696f6e000000000000000000000000006000830152602082019050919050565b6000610bc3602883610dfe565b91507f50726f6475637420776974682074686520676976656e20494420646f6573206e60008301527f6f742065786973740000000000000000000000000000000000000000000000006020830152604082019050919050565b610c2581610e0f565b82525050565b600060a0820190508181036000830152610c458188610ad7565b90508181036020830152610c598187610ad7565b90508181036040830152610c6d8186610ad7565b90508181036060830152610c818185610ad7565b9050610c906080830184610c1c565b9695505050505050565b60006020820190508181036000830152610cb381610b10565b9050919050565b60006020820190508181036000830152610cd381610b76565b9050919050565b60006020820190508181036000830152610cf381610bb6565b9050919050565b6000602082019050610d0f6000830184610c1c565b92915050565b600060c082019050610d2a6000830189610c1c565b8181036020830152610d3c8188610ad7565b90508181036040830152610d508187610ad7565b90508181036060830152610d648186610ad7565b90508181036080830152610d788185610ad7565b9050610d8760a0830184610c1c565b979650505050505050565b6000604051905081810181811067ffffffffffffffff82111715610db957610db8610f5e565b5b8060405250919050565b600067ffffffffffffffff821115610dde57610ddd610f5e565b5b601f19601f8301169050602081019050919050565b600081519050919050565b600082825260208201905092915050565b6000819050919050565b82818337600083830152505050565b60005b83811015610e46578082015181840152602081019050610e2b565b83811115610e55576000848401525b50505050565b6000610e6682610e0f565b91506000821415610e7a57610e79610f00565b5b600182039050919050565b60006002820490506001821680610e9d57607f821691505b60208210811415610eb157610eb0610f2f565b5b50919050565b6000610ec282610e0f565b91507fffffffffffffffffffffffffffffffffffffffffffffffffffffffffffffffff821415610ef557610ef4610f00565b5b600182019050919050565b7f4e487b7100000000000000000000000000000000000000000000000000000000600052601160045260246000fd5b7f4e487b7100000000000000000000000000000000000000000000000000000000600052602260045260246000fd5b7f4e487b7100000000000000000000000000000000000000000000000000000000600052604160045260246000fd5b6000601f19601f8301169050919050565b610fa781610e0f565b8114610fb257600080fd5b5056fea2646970667358221220b8393b59640c3e2df7120cc1df6f131774d1d47547e150878aa416570ece043364736f6c63430008000033",
  "linkReferences": {},
  "deployedLinkReferences": {}
}