{
  "_format": "hh-sol-artifact-1",
  "contractName": "Product",
  "sourceName": "contracts/Greeter.sol",
  "abi": [
    {
      "anonymous": false,
      "inputs": [
        {
          "indexed": false,
          "internalType": "uint256",
          "name": "id",
          "type": "uint256"
        },
        {
          "indexed": false,
          "internalType": "string",
          "name": "name",
          "type": "string"
        },
        {
          "indexed": false,
          "internalType": "string",
          "name": "emei",
          "type": "string"
        },
        {
          "indexed": false,
          "internalType": "string",
          "name": "color",
          "type": "string"
        },
        {
          "indexed": false,
          "internalType": "string",
          "name": "size",
          "type": "string"
        },
        {
          "indexed": false,
          "internalType": "uint256",
          "name": "price",
          "type": "uint256"
        },
        {
          "indexed": false,
          "internalType": "uint256",
          "name": "timestamp",
          "type": "uint256"
        }
      ],
      "name": "ProductAdded",
      "type": "event"
    },
    {
      "anonymous": false,
      "inputs": [
        {
          "indexed": false,
          "internalType": "uint256",
          "name": "id",
          "type": "uint256"
        }
      ],
      "name": "ProductRemoved",
      "type": "event"
    },
    {
      "stateMutability": "payable",
      "type": "fallback"
    },
    {
      "inputs": [
        {
          "internalType": "uint256",
          "name": "id",
          "type": "uint256"
        },
        {
          "internalType": "string",
          "name": "name",
          "type": "string"
        },
        {
          "internalType": "string",
          "name": "emei",
          "type": "string"
        },
        {
          "internalType": "string",
          "name": "color",
          "type": "string"
        },
        {
          "internalType": "string",
          "name": "size",
          "type": "string"
        },
        {
          "internalType": "uint256",
          "name": "price",
          "type": "uint256"
        }
      ],
      "name": "addProduct",
      "outputs": [],
      "stateMutability": "nonpayable",
      "type": "function"
    },
    {
      "inputs": [
        {
          "internalType": "uint256",
          "name": "id",
          "type": "uint256"
        }
      ],
      "name": "authenticateProduct",
      "outputs": [
        {
          "internalType": "bool",
          "name": "",
          "type": "bool"
        }
      ],
      "stateMutability": "view",
      "type": "function"
    },
    {
      "inputs": [
        {
          "internalType": "uint256",
          "name": "id",
          "type": "uint256"
        }
      ],
      "name": "getProduct",
      "outputs": [
        {
          "internalType": "string",
          "name": "",
          "type": "string"
        },
        {
          "internalType": "string",
          "name": "",
          "type": "string"
        },
        {
          "internalType": "string",
          "name": "",
          "type": "string"
        },
        {
          "internalType": "string",
          "name": "",
          "type": "string"
        },
        {
          "internalType": "uint256",
          "name": "",
          "type": "uint256"
        },
        {
          "internalType": "uint256",
          "name": "",
          "type": "uint256"
        }
      ],
      "stateMutability": "view",
      "type": "function"
    },
    {
      "inputs": [],
      "name": "getProductCount",
      "outputs": [
        {
          "internalType": "uint256",
          "name": "",
          "type": "uint256"
        }
      ],
      "stateMutability": "view",
      "type": "function"
    },
    {
      "inputs": [],
      "name": "getProductIds",
      "outputs": [
        {
          "internalType": "uint256[]",
          "name": "",
          "type": "uint256[]"
        }
      ],
      "stateMutability": "view",
      "type": "function"
    },
    {
      "inputs": [
        {
          "internalType": "uint256",
          "name": "id",
          "type": "uint256"
        }
      ],
      "name": "removeProduct",
      "outputs": [],
      "stateMutability": "nonpayable",
      "type": "function"
    },
    {
      "inputs": [
        {
          "internalType": "uint256",
          "name": "id",
          "type": "uint256"
        },
        {
          "internalType": "string",
          "name": "name",
          "type": "string"
        },
        {
          "internalType": "string",
          "name": "emei",
          "type": "string"
        },
        {
          "internalType": "string",
          "name": "color",
          "type": "string"
        },
        {
          "internalType": "string",
          "name": "size",
          "type": "string"
        },
        {
          "internalType": "uint256",
          "name": "price",
          "type": "uint256"
        }
      ],
      "name": "updateProduct",
      "outputs": [],
      "stateMutability": "nonpayable",
      "type": "function"
    },
    {
      "stateMutability": "payable",
      "type": "receive"
    }
  ],
  "bytecode": "0x6080604052600060025534801561001557600080fd5b5061149b806100256000396000f3fe6080604052600436106100745760003560e01c80635ee95cae1161004e5780635ee95cae14610135578063b9db15b41461015e578063c1ccd96e146101a0578063fd77d9bc146101dd5761007b565b806306c61343146100b657806347428e7b146100df5780634a348da91461010a5761007b565b3661007b57005b6040517f08c379a00000000000000000000000000000000000000000000000000000000081526004016100ad906110e3565b60405180910390fd5b3480156100c257600080fd5b506100dd60048036038101906100d89190610d38565b610206565b005b3480156100eb57600080fd5b506100f46103ba565b6040516101019190611009565b60405180910390f35b34801561011657600080fd5b5061011f610412565b60405161012c9190611123565b60405180910390f35b34801561014157600080fd5b5061015c60048036038101906101579190610d0f565b61041c565b005b34801561016a57600080fd5b5061018560048036038101906101809190610d0f565b61068b565b60405161019796959493929190611046565b60405180910390f35b3480156101ac57600080fd5b506101c760048036038101906101c29190610d0f565b6109b2565b6040516101d4919061102b565b60405180910390f35b3480156101e957600080fd5b5061020460048036038101906101ff9190610d38565b610a3b565b005b6000806000888152602001908152602001600020600401541461025e576040517f08c379a0000000000000000000000000000000000000000000000000000000008152600401610255906110c3565b60405180910390fd5b60004290506040518060c001604052808781526020018681526020018581526020018481526020018381526020018281525060008089815260200190815260200160002060008201518160000190805190602001906102be929190610baf565b5060208201518160010190805190602001906102db929190610baf565b5060408201518160020190805190602001906102f8929190610baf565b506060820151816003019080519060200190610315929190610baf565b506080820151816004015560a0820151816005015590505060018790806001815401808255809150506001900390600052602060002001600090919091909150556002600081548092919061036990611367565b91905055507fc095bb55c137c645af0208a55068dc614c53a8fcf828b01893ad60d0d6b9397e878787878787876040516103a9979695949392919061113e565b60405180910390a150505050505050565b6060600180548060200260200160405190810160405280929190818152602001828054801561040857602002820191906000526020600020905b8154815260200190600101908083116103f4575b5050505050905090565b6000600254905090565b6000806000838152602001908152602001600020600401541415610475576040517f08c379a000000000000000000000000000000000000000000000000000000000815260040161046c90611103565b60405180910390fd5b600080828152602001908152602001600020600080820160006104989190610c35565b6001820160006104a89190610c35565b6002820160006104b89190610c35565b6003820160006104c89190610c35565b60048201600090556005820160009055505060005b600180549050811015610638578160018281548110610525577f4e487b7100000000000000000000000000000000000000000000000000000000600052603260045260246000fd5b90600052602060002001541415610625576001808080549050610548919061127f565b8154811061057f577f4e487b7100000000000000000000000000000000000000000000000000000000600052603260045260246000fd5b9060005260206000200154600182815481106105c4577f4e487b7100000000000000000000000000000000000000000000000000000000600052603260045260246000fd5b9060005260206000200181905550600180548061060a577f4e487b7100000000000000000000000000000000000000000000000000000000600052603160045260246000fd5b60019003818190600052602060002001600090559055610638565b808061063090611367565b9150506104dd565b506002600081548092919061064c9061130b565b91905055507f07015631cff457b5b13492c2045e70c6305a0a4aa773e432e79abbe2cf52c1eb816040516106809190611123565b60405180910390a150565b60608060608060008060008060008981526020019081526020016000206004015414156106ed576040517f08c379a00000000000000000000000000000000000000000000000000000000081526004016106e490611103565b60405180910390fd5b6000808881526020019081526020016000206000016000808981526020019081526020016000206001016000808a81526020019081526020016000206002016000808b81526020019081526020016000206003016000808c8152602001908152602001600020600401546000808d81526020019081526020016000206005015485805461077990611335565b80601f01602080910402602001604051908101604052809291908181526020018280546107a590611335565b80156107f25780601f106107c7576101008083540402835291602001916107f2565b820191906000526020600020905b8154815290600101906020018083116107d557829003601f168201915b5050505050955084805461080590611335565b80601f016020809104026020016040519081016040528092919081815260200182805461083190611335565b801561087e5780601f106108535761010080835404028352916020019161087e565b820191906000526020600020905b81548152906001019060200180831161086157829003601f168201915b5050505050945083805461089190611335565b80601f01602080910402602001604051908101604052809291908181526020018280546108bd90611335565b801561090a5780601f106108df5761010080835404028352916020019161090a565b820191906000526020600020905b8154815290600101906020018083116108ed57829003601f168201915b5050505050935082805461091d90611335565b80601f016020809104026020016040519081016040528092919081815260200182805461094990611335565b80156109965780601f1061096b57610100808354040283529160200191610996565b820191906000526020600020905b81548152906001019060200180831161097957829003601f168201915b5050505050925095509550955095509550955091939550919395565b600080600090505b600180549050811015610a30578260018281548110610a02577f4e487b7100000000000000000000000000000000000000000000000000000000600052603260045260246000fd5b90600052602060002001541415610a1d576001915050610a36565b8080610a2890611367565b9150506109ba565b50600090505b919050565b6000806000888152602001908152602001600020600401541415610a94576040517f08c379a0000000000000000000000000000000000000000000000000000000008152600401610a8b90611103565b60405180910390fd5b60004290506040518060c00160405280878152602001868152602001858152602001848152602001838152602001828152506000808981526020019081526020016000206000820151816000019080519060200190610af4929190610baf565b506020820151816001019080519060200190610b11929190610baf565b506040820151816002019080519060200190610b2e929190610baf565b506060820151816003019080519060200190610b4b929190610baf565b506080820151816004015560a082015181600501559050507fc095bb55c137c645af0208a55068dc614c53a8fcf828b01893ad60d0d6b9397e87878787878787604051610b9e979695949392919061113e565b60405180910390a150505050505050565b828054610bbb90611335565b90600052602060002090601f016020900481019282610bdd5760008555610c24565b82601f10610bf657805160ff1916838001178555610c24565b82800160010185558215610c24579182015b82811115610c23578251825591602001919060010190610c08565b5b509050610c319190610c75565b5090565b508054610c4190611335565b6000825580601f10610c535750610c72565b601f016020900490600052602060002090810190610c719190610c75565b5b50565b5b80821115610c8e576000816000905550600101610c76565b5090565b6000610ca5610ca0846111fa565b6111c9565b905082815260208101848484011115610cbd57600080fd5b610cc88482856112c9565b509392505050565b600082601f830112610ce157600080fd5b8135610cf1848260208601610c92565b91505092915050565b600081359050610d098161144e565b92915050565b600060208284031215610d2157600080fd5b6000610d2f84828501610cfa565b91505092915050565b60008060008060008060c08789031215610d5157600080fd5b6000610d5f89828a01610cfa565b965050602087013567ffffffffffffffff811115610d7c57600080fd5b610d8889828a01610cd0565b955050604087013567ffffffffffffffff811115610da557600080fd5b610db189828a01610cd0565b945050606087013567ffffffffffffffff811115610dce57600080fd5b610dda89828a01610cd0565b935050608087013567ffffffffffffffff811115610df757600080fd5b610e0389828a01610cd0565b92505060a0610e1489828a01610cfa565b9150509295509295509295565b6000610e2d8383610feb565b60208301905092915050565b6000610e448261123a565b610e4e818561125d565b9350610e598361122a565b8060005b83811015610e8a578151610e718882610e21565b9750610e7c83611250565b925050600181019050610e5d565b5085935050505092915050565b610ea0816112b3565b82525050565b6000610eb182611245565b610ebb818561126e565b9350610ecb8185602086016112d8565b610ed48161143d565b840191505092915050565b6000610eec60278361126e565b91507f50726f647563742077697468207468652073616d6520494420616c726561647960008301527f20657869737473000000000000000000000000000000000000000000000000006020830152604082019050919050565b6000610f5260138361126e565b91507f496e76616c6964207472616e73616374696f6e000000000000000000000000006000830152602082019050919050565b6000610f9260288361126e565b91507f50726f6475637420776974682074686520676976656e20494420646f6573206e60008301527f6f742065786973740000000000000000000000000000000000000000000000006020830152604082019050919050565b610ff4816112bf565b82525050565b611003816112bf565b82525050565b600060208201905081810360008301526110238184610e39565b905092915050565b60006020820190506110406000830184610e97565b92915050565b600060c08201905081810360008301526110608189610ea6565b905081810360208301526110748188610ea6565b905081810360408301526110888187610ea6565b9050818103606083015261109c8186610ea6565b90506110ab6080830185610ffa565b6110b860a0830184610ffa565b979650505050505050565b600060208201905081810360008301526110dc81610edf565b9050919050565b600060208201905081810360008301526110fc81610f45565b9050919050565b6000602082019050818103600083015261111c81610f85565b9050919050565b60006020820190506111386000830184610ffa565b92915050565b600060e082019050611153600083018a610ffa565b81810360208301526111658189610ea6565b905081810360408301526111798188610ea6565b9050818103606083015261118d8187610ea6565b905081810360808301526111a18186610ea6565b90506111b060a0830185610ffa565b6111bd60c0830184610ffa565b98975050505050505050565b6000604051905081810181811067ffffffffffffffff821117156111f0576111ef61140e565b5b8060405250919050565b600067ffffffffffffffff8211156112155761121461140e565b5b601f19601f8301169050602081019050919050565b6000819050602082019050919050565b600081519050919050565b600081519050919050565b6000602082019050919050565b600082825260208201905092915050565b600082825260208201905092915050565b600061128a826112bf565b9150611295836112bf565b9250828210156112a8576112a76113b0565b5b828203905092915050565b60008115159050919050565b6000819050919050565b82818337600083830152505050565b60005b838110156112f65780820151818401526020810190506112db565b83811115611305576000848401525b50505050565b6000611316826112bf565b9150600082141561132a576113296113b0565b5b600182039050919050565b6000600282049050600182168061134d57607f821691505b60208210811415611361576113606113df565b5b50919050565b6000611372826112bf565b91507fffffffffffffffffffffffffffffffffffffffffffffffffffffffffffffffff8214156113a5576113a46113b0565b5b600182019050919050565b7f4e487b7100000000000000000000000000000000000000000000000000000000600052601160045260246000fd5b7f4e487b7100000000000000000000000000000000000000000000000000000000600052602260045260246000fd5b7f4e487b7100000000000000000000000000000000000000000000000000000000600052604160045260246000fd5b6000601f19601f8301169050919050565b611457816112bf565b811461146257600080fd5b5056fea2646970667358221220475c45140584880a3dfb3a3fb468a462d56ca44632b3b2d2dae5ad9c41873b2964736f6c63430008000033",
  "linkReferences": {},
  "deployedLinkReferences": {}
}