{
  "_format": "hh-sol-artifact-1",
  "contractName": "Product",
  "sourceName": "contracts/Greeter.sol",
  "abi": [
    {
      "anonymous": false,
      "inputs": [
        {
          "indexed": false,
          "internalType": "uint256",
          "name": "id",
          "type": "uint256"
        },
        {
          "indexed": false,
          "internalType": "string",
          "name": "name",
          "type": "string"
        },
        {
          "indexed": false,
          "internalType": "string",
          "name": "emei",
          "type": "string"
        },
        {
          "indexed": false,
          "internalType": "string",
          "name": "color",
          "type": "string"
        },
        {
          "indexed": false,
          "internalType": "string",
          "name": "size",
          "type": "string"
        },
        {
          "indexed": false,
          "internalType": "uint256",
          "name": "price",
          "type": "uint256"
        }
      ],
      "name": "ProductAdded",
      "type": "event"
    },
    {
      "anonymous": false,
      "inputs": [
        {
          "indexed": false,
          "internalType": "uint256",
          "name": "id",
          "type": "uint256"
        }
      ],
      "name": "ProductRemoved",
      "type": "event"
    },
    {
      "stateMutability": "payable",
      "type": "fallback"
    },
    {
      "inputs": [
        {
          "internalType": "uint256",
          "name": "id",
          "type": "uint256"
        },
        {
          "internalType": "string",
          "name": "name",
          "type": "string"
        },
        {
          "internalType": "string",
          "name": "emei",
          "type": "string"
        },
        {
          "internalType": "string",
          "name": "color",
          "type": "string"
        },
        {
          "internalType": "string",
          "name": "size",
          "type": "string"
        },
        {
          "internalType": "uint256",
          "name": "price",
          "type": "uint256"
        }
      ],
      "name": "addProduct",
      "outputs": [],
      "stateMutability": "nonpayable",
      "type": "function"
    },
    {
      "inputs": [
        {
          "internalType": "uint256",
          "name": "id",
          "type": "uint256"
        }
      ],
      "name": "getProduct",
      "outputs": [
        {
          "internalType": "string",
          "name": "",
          "type": "string"
        },
        {
          "internalType": "string",
          "name": "",
          "type": "string"
        },
        {
          "internalType": "string",
          "name": "",
          "type": "string"
        },
        {
          "internalType": "string",
          "name": "",
          "type": "string"
        },
        {
          "internalType": "uint256",
          "name": "",
          "type": "uint256"
        }
      ],
      "stateMutability": "view",
      "type": "function"
    },
    {
      "inputs": [],
      "name": "getProductCount",
      "outputs": [
        {
          "internalType": "uint256",
          "name": "",
          "type": "uint256"
        }
      ],
      "stateMutability": "view",
      "type": "function"
    },
    {
      "inputs": [
        {
          "internalType": "uint256",
          "name": "id",
          "type": "uint256"
        }
      ],
      "name": "removeProduct",
      "outputs": [],
      "stateMutability": "nonpayable",
      "type": "function"
    },
    {
      "inputs": [
        {
          "internalType": "uint256",
          "name": "id",
          "type": "uint256"
        },
        {
          "internalType": "string",
          "name": "name",
          "type": "string"
        },
        {
          "internalType": "string",
          "name": "emei",
          "type": "string"
        },
        {
          "internalType": "string",
          "name": "color",
          "type": "string"
        },
        {
          "internalType": "string",
          "name": "size",
          "type": "string"
        },
        {
          "internalType": "uint256",
          "name": "price",
          "type": "uint256"
        }
      ],
      "name": "updateProduct",
      "outputs": [],
      "stateMutability": "nonpayable",
      "type": "function"
    },
    {
      "stateMutability": "payable",
      "type": "receive"
    }
  ],
  "bytecode": "0x608060405234801561001057600080fd5b50610e87806100206000396000f3fe6080604052600436106100435760003560e01c806306c61343146100855780635ee95cae146100ae578063b9db15b4146100d7578063fd77d9bc146101185761004a565b3661004a57005b6040517f08c379a000000000000000000000000000000000000000000000000000000000815260040161007c90610c13565b60405180910390fd5b34801561009157600080fd5b506100ac60048036038101906100a79190610947565b610141565b005b3480156100ba57600080fd5b506100d560048036038101906100d0919061091e565b61029c565b005b3480156100e357600080fd5b506100fe60048036038101906100f9919061091e565b610355565b60405161010f959493929190610b84565b60405180910390f35b34801561012457600080fd5b5061013f600480360381019061013a9190610947565b610662565b005b60008060008881526020019081526020016000206004015414610199576040517f08c379a000000000000000000000000000000000000000000000000000000000815260040161019090610bf3565b60405180910390fd5b6040518060a001604052808681526020018581526020018481526020018381526020018281525060008088815260200190815260200160002060008201518160000190805190602001906101ee9291906107be565b50602082015181600101908051906020019061020b9291906107be565b5060408201518160020190805190602001906102289291906107be565b5060608201518160030190805190602001906102459291906107be565b50608082015181600401559050507fc80d8977eb21bc7ae81efad32286b6030afbbf2efdb146c4949d55849fa2670786868686868660405161028c96959493929190610c53565b60405180910390a1505050505050565b60008060008381526020019081526020016000206004015414156102f5576040517f08c379a00000000000000000000000000000000000000000000000000000000081526004016102ec90610c33565b60405180910390fd5b600080828152602001908152602001600020600080820160006103189190610844565b6001820160006103289190610844565b6002820160006103389190610844565b6003820160006103489190610844565b6004820160009055505050565b6060806060806000806000808881526020019081526020016000206004015414156103b5576040517f08c379a00000000000000000000000000000000000000000000000000000000081526004016103ac90610c33565b60405180910390fd5b6000808781526020019081526020016000206000016000808881526020019081526020016000206001016000808981526020019081526020016000206002016000808a81526020019081526020016000206003016000808b81526020019081526020016000206004015484805461042b90610d99565b80601f016020809104026020016040519081016040528092919081815260200182805461045790610d99565b80156104a45780601f10610479576101008083540402835291602001916104a4565b820191906000526020600020905b81548152906001019060200180831161048757829003601f168201915b505050505094508380546104b790610d99565b80601f01602080910402602001604051908101604052809291908181526020018280546104e390610d99565b80156105305780601f1061050557610100808354040283529160200191610530565b820191906000526020600020905b81548152906001019060200180831161051357829003601f168201915b5050505050935082805461054390610d99565b80601f016020809104026020016040519081016040528092919081815260200182805461056f90610d99565b80156105bc5780601f10610591576101008083540402835291602001916105bc565b820191906000526020600020905b81548152906001019060200180831161059f57829003601f168201915b505050505092508180546105cf90610d99565b80601f01602080910402602001604051908101604052809291908181526020018280546105fb90610d99565b80156106485780601f1061061d57610100808354040283529160200191610648565b820191906000526020600020905b81548152906001019060200180831161062b57829003601f168201915b505050505091509450945094509450945091939590929450565b60008060008881526020019081526020016000206004015414156106bb576040517f08c379a00000000000000000000000000000000000000000000000000000000081526004016106b290610c33565b60405180910390fd5b6040518060a001604052808681526020018581526020018481526020018381526020018281525060008088815260200190815260200160002060008201518160000190805190602001906107109291906107be565b50602082015181600101908051906020019061072d9291906107be565b50604082015181600201908051906020019061074a9291906107be565b5060608201518160030190805190602001906107679291906107be565b50608082015181600401559050507fc80d8977eb21bc7ae81efad32286b6030afbbf2efdb146c4949d55849fa267078686868686866040516107ae96959493929190610c53565b60405180910390a1505050505050565b8280546107ca90610d99565b90600052602060002090601f0160209004810192826107ec5760008555610833565b82601f1061080557805160ff1916838001178555610833565b82800160010185558215610833579182015b82811115610832578251825591602001919060010190610817565b5b5090506108409190610884565b5090565b50805461085090610d99565b6000825580601f106108625750610881565b601f0160209004906000526020600020908101906108809190610884565b5b50565b5b8082111561089d576000816000905550600101610885565b5090565b60006108b46108af84610d01565b610cd0565b9050828152602081018484840111156108cc57600080fd5b6108d7848285610d57565b509392505050565b600082601f8301126108f057600080fd5b81356109008482602086016108a1565b91505092915050565b60008135905061091881610e3a565b92915050565b60006020828403121561093057600080fd5b600061093e84828501610909565b91505092915050565b60008060008060008060c0878903121561096057600080fd5b600061096e89828a01610909565b965050602087013567ffffffffffffffff81111561098b57600080fd5b61099789828a016108df565b955050604087013567ffffffffffffffff8111156109b457600080fd5b6109c089828a016108df565b945050606087013567ffffffffffffffff8111156109dd57600080fd5b6109e989828a016108df565b935050608087013567ffffffffffffffff811115610a0657600080fd5b610a1289828a016108df565b92505060a0610a2389828a01610909565b9150509295509295509295565b6000610a3b82610d31565b610a458185610d3c565b9350610a55818560208601610d66565b610a5e81610e29565b840191505092915050565b6000610a76602783610d3c565b91507f50726f647563742077697468207468652073616d6520494420616c726561647960008301527f20657869737473000000000000000000000000000000000000000000000000006020830152604082019050919050565b6000610adc601383610d3c565b91507f496e76616c6964207472616e73616374696f6e000000000000000000000000006000830152602082019050919050565b6000610b1c602883610d3c565b91507f50726f6475637420776974682074686520676976656e20494420646f6573206e60008301527f6f742065786973740000000000000000000000000000000000000000000000006020830152604082019050919050565b610b7e81610d4d565b82525050565b600060a0820190508181036000830152610b9e8188610a30565b90508181036020830152610bb28187610a30565b90508181036040830152610bc68186610a30565b90508181036060830152610bda8185610a30565b9050610be96080830184610b75565b9695505050505050565b60006020820190508181036000830152610c0c81610a69565b9050919050565b60006020820190508181036000830152610c2c81610acf565b9050919050565b60006020820190508181036000830152610c4c81610b0f565b9050919050565b600060c082019050610c686000830189610b75565b8181036020830152610c7a8188610a30565b90508181036040830152610c8e8187610a30565b90508181036060830152610ca28186610a30565b90508181036080830152610cb68185610a30565b9050610cc560a0830184610b75565b979650505050505050565b6000604051905081810181811067ffffffffffffffff82111715610cf757610cf6610dfa565b5b8060405250919050565b600067ffffffffffffffff821115610d1c57610d1b610dfa565b5b601f19601f8301169050602081019050919050565b600081519050919050565b600082825260208201905092915050565b6000819050919050565b82818337600083830152505050565b60005b83811015610d84578082015181840152602081019050610d69565b83811115610d93576000848401525b50505050565b60006002820490506001821680610db157607f821691505b60208210811415610dc557610dc4610dcb565b5b50919050565b7f4e487b7100000000000000000000000000000000000000000000000000000000600052602260045260246000fd5b7f4e487b7100000000000000000000000000000000000000000000000000000000600052604160045260246000fd5b6000601f19601f8301169050919050565b610e4381610d4d565b8114610e4e57600080fd5b5056fea2646970667358221220ebf6e686161f86a40795fdceed365513f0e3309acd615dc47df0aa3337f2087764736f6c63430008000033",
  "linkReferences": {},
  "deployedLinkReferences": {}
}