{
  "_format": "hh-sol-artifact-1",
  "contractName": "Product",
  "sourceName": "contracts/Greeter.sol",
  "abi": [
    {
      "anonymous": false,
      "inputs": [
        {
          "indexed": false,
          "internalType": "uint256",
          "name": "id",
          "type": "uint256"
        },
        {
          "indexed": false,
          "internalType": "string",
          "name": "name",
          "type": "string"
        },
        {
          "indexed": false,
          "internalType": "string",
          "name": "emei",
          "type": "string"
        },
        {
          "indexed": false,
          "internalType": "string",
          "name": "color",
          "type": "string"
        },
        {
          "indexed": false,
          "internalType": "string",
          "name": "size",
          "type": "string"
        },
        {
          "indexed": false,
          "internalType": "uint256",
          "name": "price",
          "type": "uint256"
        }
      ],
      "name": "ProductAdded",
      "type": "event"
    },
    {
      "stateMutability": "payable",
      "type": "fallback"
    },
    {
      "inputs": [
        {
          "internalType": "uint256",
          "name": "id",
          "type": "uint256"
        },
        {
          "internalType": "string",
          "name": "name",
          "type": "string"
        },
        {
          "internalType": "string",
          "name": "emei",
          "type": "string"
        },
        {
          "internalType": "string",
          "name": "color",
          "type": "string"
        },
        {
          "internalType": "string",
          "name": "size",
          "type": "string"
        },
        {
          "internalType": "uint256",
          "name": "price",
          "type": "uint256"
        }
      ],
      "name": "addProduct",
      "outputs": [],
      "stateMutability": "nonpayable",
      "type": "function"
    },
    {
      "inputs": [
        {
          "internalType": "uint256",
          "name": "id",
          "type": "uint256"
        }
      ],
      "name": "getProduct",
      "outputs": [
        {
          "internalType": "string",
          "name": "",
          "type": "string"
        },
        {
          "internalType": "string",
          "name": "",
          "type": "string"
        },
        {
          "internalType": "string",
          "name": "",
          "type": "string"
        },
        {
          "internalType": "string",
          "name": "",
          "type": "string"
        },
        {
          "internalType": "uint256",
          "name": "",
          "type": "uint256"
        }
      ],
      "stateMutability": "view",
      "type": "function"
    },
    {
      "stateMutability": "payable",
      "type": "receive"
    }
  ],
  "bytecode": "0x608060405234801561001057600080fd5b50610a0e806100206000396000f3fe60806040526004361061002d5760003560e01c806306c613431461006f578063b9db15b41461009857610034565b3661003457005b6040517f08c379a0000000000000000000000000000000000000000000000000000000008152600401610066906107ba565b60405180910390fd5b34801561007b57600080fd5b50610096600480360381019061009191906105da565b6100d9565b005b3480156100a457600080fd5b506100bf60048036038101906100ba91906105b1565b6101dc565b6040516100d095949392919061074b565b60405180910390f35b6040518060a0016040528086815260200185815260200184815260200183815260200182815250600080888152602001908152602001600020600082015181600001908051906020019061012e929190610491565b50602082015181600101908051906020019061014b929190610491565b506040820151816002019080519060200190610168929190610491565b506060820151816003019080519060200190610185929190610491565b50608082015181600401559050507fc80d8977eb21bc7ae81efad32286b6030afbbf2efdb146c4949d55849fa267078686868686866040516101cc969594939291906107da565b60405180910390a1505050505050565b60608060608060008060008781526020019081526020016000206000016000808881526020019081526020016000206001016000808981526020019081526020016000206002016000808a81526020019081526020016000206003016000808b81526020019081526020016000206004015484805461025a90610920565b80601f016020809104026020016040519081016040528092919081815260200182805461028690610920565b80156102d35780601f106102a8576101008083540402835291602001916102d3565b820191906000526020600020905b8154815290600101906020018083116102b657829003601f168201915b505050505094508380546102e690610920565b80601f016020809104026020016040519081016040528092919081815260200182805461031290610920565b801561035f5780601f106103345761010080835404028352916020019161035f565b820191906000526020600020905b81548152906001019060200180831161034257829003601f168201915b5050505050935082805461037290610920565b80601f016020809104026020016040519081016040528092919081815260200182805461039e90610920565b80156103eb5780601f106103c0576101008083540402835291602001916103eb565b820191906000526020600020905b8154815290600101906020018083116103ce57829003601f168201915b505050505092508180546103fe90610920565b80601f016020809104026020016040519081016040528092919081815260200182805461042a90610920565b80156104775780601f1061044c57610100808354040283529160200191610477565b820191906000526020600020905b81548152906001019060200180831161045a57829003601f168201915b505050505091509450945094509450945091939590929450565b82805461049d90610920565b90600052602060002090601f0160209004810192826104bf5760008555610506565b82601f106104d857805160ff1916838001178555610506565b82800160010185558215610506579182015b828111156105055782518255916020019190600101906104ea565b5b5090506105139190610517565b5090565b5b80821115610530576000816000905550600101610518565b5090565b600061054761054284610888565b610857565b90508281526020810184848401111561055f57600080fd5b61056a8482856108de565b509392505050565b600082601f83011261058357600080fd5b8135610593848260208601610534565b91505092915050565b6000813590506105ab816109c1565b92915050565b6000602082840312156105c357600080fd5b60006105d18482850161059c565b91505092915050565b60008060008060008060c087890312156105f357600080fd5b600061060189828a0161059c565b965050602087013567ffffffffffffffff81111561061e57600080fd5b61062a89828a01610572565b955050604087013567ffffffffffffffff81111561064757600080fd5b61065389828a01610572565b945050606087013567ffffffffffffffff81111561067057600080fd5b61067c89828a01610572565b935050608087013567ffffffffffffffff81111561069957600080fd5b6106a589828a01610572565b92505060a06106b689828a0161059c565b9150509295509295509295565b60006106ce826108b8565b6106d881856108c3565b93506106e88185602086016108ed565b6106f1816109b0565b840191505092915050565b60006107096013836108c3565b91507f496e76616c6964207472616e73616374696f6e000000000000000000000000006000830152602082019050919050565b610745816108d4565b82525050565b600060a082019050818103600083015261076581886106c3565b9050818103602083015261077981876106c3565b9050818103604083015261078d81866106c3565b905081810360608301526107a181856106c3565b90506107b0608083018461073c565b9695505050505050565b600060208201905081810360008301526107d3816106fc565b9050919050565b600060c0820190506107ef600083018961073c565b818103602083015261080181886106c3565b9050818103604083015261081581876106c3565b9050818103606083015261082981866106c3565b9050818103608083015261083d81856106c3565b905061084c60a083018461073c565b979650505050505050565b6000604051905081810181811067ffffffffffffffff8211171561087e5761087d610981565b5b8060405250919050565b600067ffffffffffffffff8211156108a3576108a2610981565b5b601f19601f8301169050602081019050919050565b600081519050919050565b600082825260208201905092915050565b6000819050919050565b82818337600083830152505050565b60005b8381101561090b5780820151818401526020810190506108f0565b8381111561091a576000848401525b50505050565b6000600282049050600182168061093857607f821691505b6020821081141561094c5761094b610952565b5b50919050565b7f4e487b7100000000000000000000000000000000000000000000000000000000600052602260045260246000fd5b7f4e487b7100000000000000000000000000000000000000000000000000000000600052604160045260246000fd5b6000601f19601f8301169050919050565b6109ca816108d4565b81146109d557600080fd5b5056fea26469706673582212201d3534b20a05094425a65fcdfa2dcab4d676eae4646d824e7eadd749ba1485fd64736f6c63430008000033",
  "linkReferences": {},
  "deployedLinkReferences": {}
}