{
  "_format": "hh-sol-artifact-1",
  "contractName": "Product",
  "sourceName": "contracts/Greeter.sol",
  "abi": [
    {
      "anonymous": false,
      "inputs": [
        {
          "indexed": false,
          "internalType": "uint256",
          "name": "id",
          "type": "uint256"
        },
        {
          "indexed": false,
          "internalType": "string",
          "name": "name",
          "type": "string"
        },
        {
          "indexed": false,
          "internalType": "string",
          "name": "emei",
          "type": "string"
        },
        {
          "indexed": false,
          "internalType": "string",
          "name": "color",
          "type": "string"
        },
        {
          "indexed": false,
          "internalType": "string",
          "name": "size",
          "type": "string"
        },
        {
          "indexed": false,
          "internalType": "uint256",
          "name": "price",
          "type": "uint256"
        },
        {
          "indexed": false,
          "internalType": "uint256",
          "name": "timestamp",
          "type": "uint256"
        }
      ],
      "name": "ProductAdded",
      "type": "event"
    },
    {
      "anonymous": false,
      "inputs": [
        {
          "indexed": false,
          "internalType": "uint256",
          "name": "id",
          "type": "uint256"
        }
      ],
      "name": "ProductRemoved",
      "type": "event"
    },
    {
      "stateMutability": "payable",
      "type": "fallback"
    },
    {
      "inputs": [
        {
          "internalType": "uint256",
          "name": "id",
          "type": "uint256"
        },
        {
          "internalType": "string",
          "name": "name",
          "type": "string"
        },
        {
          "internalType": "string",
          "name": "emei",
          "type": "string"
        },
        {
          "internalType": "string",
          "name": "color",
          "type": "string"
        },
        {
          "internalType": "string",
          "name": "size",
          "type": "string"
        },
        {
          "internalType": "uint256",
          "name": "price",
          "type": "uint256"
        }
      ],
      "name": "addProduct",
      "outputs": [],
      "stateMutability": "nonpayable",
      "type": "function"
    },
    {
      "inputs": [
        {
          "internalType": "uint256",
          "name": "id",
          "type": "uint256"
        }
      ],
      "name": "getProduct",
      "outputs": [
        {
          "internalType": "string",
          "name": "",
          "type": "string"
        },
        {
          "internalType": "string",
          "name": "",
          "type": "string"
        },
        {
          "internalType": "string",
          "name": "",
          "type": "string"
        },
        {
          "internalType": "string",
          "name": "",
          "type": "string"
        },
        {
          "internalType": "uint256",
          "name": "",
          "type": "uint256"
        },
        {
          "internalType": "uint256",
          "name": "",
          "type": "uint256"
        }
      ],
      "stateMutability": "view",
      "type": "function"
    },
    {
      "inputs": [],
      "name": "getProductCount",
      "outputs": [
        {
          "internalType": "uint256",
          "name": "",
          "type": "uint256"
        }
      ],
      "stateMutability": "view",
      "type": "function"
    },
    {
      "inputs": [],
      "name": "getProductIds",
      "outputs": [
        {
          "internalType": "uint256[]",
          "name": "",
          "type": "uint256[]"
        }
      ],
      "stateMutability": "view",
      "type": "function"
    },
    {
      "inputs": [
        {
          "internalType": "uint256",
          "name": "id",
          "type": "uint256"
        }
      ],
      "name": "removeProduct",
      "outputs": [],
      "stateMutability": "nonpayable",
      "type": "function"
    },
    {
      "inputs": [
        {
          "internalType": "uint256",
          "name": "id",
          "type": "uint256"
        },
        {
          "internalType": "string",
          "name": "name",
          "type": "string"
        },
        {
          "internalType": "string",
          "name": "emei",
          "type": "string"
        },
        {
          "internalType": "string",
          "name": "color",
          "type": "string"
        },
        {
          "internalType": "string",
          "name": "size",
          "type": "string"
        },
        {
          "internalType": "uint256",
          "name": "price",
          "type": "uint256"
        }
      ],
      "name": "updateProduct",
      "outputs": [],
      "stateMutability": "nonpayable",
      "type": "function"
    },
    {
      "stateMutability": "payable",
      "type": "receive"
    }
  ],
  "bytecode": "0x6080604052600060025534801561001557600080fd5b50611384806100256000396000f3fe6080604052600436106100595760003560e01c806306c613431461009b57806347428e7b146100c45780634a348da9146100ef5780635ee95cae1461011a578063b9db15b414610143578063fd77d9bc1461018557610060565b3661006057005b6040517f08c379a000000000000000000000000000000000000000000000000000000000815260040161009290610fd8565b60405180910390fd5b3480156100a757600080fd5b506100c260048036038101906100bd9190610c57565b6101ae565b005b3480156100d057600080fd5b506100d9610362565b6040516100e69190610f19565b60405180910390f35b3480156100fb57600080fd5b506101046103ba565b6040516101119190611018565b60405180910390f35b34801561012657600080fd5b50610141600480360381019061013c9190610c2e565b6103c4565b005b34801561014f57600080fd5b5061016a60048036038101906101659190610c2e565b610633565b60405161017c96959493929190610f3b565b60405180910390f35b34801561019157600080fd5b506101ac60048036038101906101a79190610c57565b61095a565b005b60008060008881526020019081526020016000206004015414610206576040517f08c379a00000000000000000000000000000000000000000000000000000000081526004016101fd90610fb8565b60405180910390fd5b60004290506040518060c00160405280878152602001868152602001858152602001848152602001838152602001828152506000808981526020019081526020016000206000820151816000019080519060200190610266929190610ace565b506020820151816001019080519060200190610283929190610ace565b5060408201518160020190805190602001906102a0929190610ace565b5060608201518160030190805190602001906102bd929190610ace565b506080820151816004015560a0820151816005015590505060018790806001815401808255809150506001900390600052602060002001600090919091909150556002600081548092919061031190611250565b91905055507fc095bb55c137c645af0208a55068dc614c53a8fcf828b01893ad60d0d6b9397e878787878787876040516103519796959493929190611033565b60405180910390a150505050505050565b606060018054806020026020016040519081016040528092919081815260200182805480156103b057602002820191906000526020600020905b81548152602001906001019080831161039c575b5050505050905090565b6000600254905090565b600080600083815260200190815260200160002060040154141561041d576040517f08c379a000000000000000000000000000000000000000000000000000000000815260040161041490610ff8565b60405180910390fd5b600080828152602001908152602001600020600080820160006104409190610b54565b6001820160006104509190610b54565b6002820160006104609190610b54565b6003820160006104709190610b54565b60048201600090556005820160009055505060005b6001805490508110156105e05781600182815481106104cd577f4e487b7100000000000000000000000000000000000000000000000000000000600052603260045260246000fd5b906000526020600020015414156105cd5760018080805490506104f09190611174565b81548110610527577f4e487b7100000000000000000000000000000000000000000000000000000000600052603260045260246000fd5b90600052602060002001546001828154811061056c577f4e487b7100000000000000000000000000000000000000000000000000000000600052603260045260246000fd5b906000526020600020018190555060018054806105b2577f4e487b7100000000000000000000000000000000000000000000000000000000600052603160045260246000fd5b600190038181906000526020600020016000905590556105e0565b80806105d890611250565b915050610485565b50600260008154809291906105f4906111f4565b91905055507f07015631cff457b5b13492c2045e70c6305a0a4aa773e432e79abbe2cf52c1eb816040516106289190611018565b60405180910390a150565b6060806060806000806000806000898152602001908152602001600020600401541415610695576040517f08c379a000000000000000000000000000000000000000000000000000000000815260040161068c90610ff8565b60405180910390fd5b6000808881526020019081526020016000206000016000808981526020019081526020016000206001016000808a81526020019081526020016000206002016000808b81526020019081526020016000206003016000808c8152602001908152602001600020600401546000808d8152602001908152602001600020600501548580546107219061121e565b80601f016020809104026020016040519081016040528092919081815260200182805461074d9061121e565b801561079a5780601f1061076f5761010080835404028352916020019161079a565b820191906000526020600020905b81548152906001019060200180831161077d57829003601f168201915b505050505095508480546107ad9061121e565b80601f01602080910402602001604051908101604052809291908181526020018280546107d99061121e565b80156108265780601f106107fb57610100808354040283529160200191610826565b820191906000526020600020905b81548152906001019060200180831161080957829003601f168201915b505050505094508380546108399061121e565b80601f01602080910402602001604051908101604052809291908181526020018280546108659061121e565b80156108b25780601f10610887576101008083540402835291602001916108b2565b820191906000526020600020905b81548152906001019060200180831161089557829003601f168201915b505050505093508280546108c59061121e565b80601f01602080910402602001604051908101604052809291908181526020018280546108f19061121e565b801561093e5780601f106109135761010080835404028352916020019161093e565b820191906000526020600020905b81548152906001019060200180831161092157829003601f168201915b5050505050925095509550955095509550955091939550919395565b60008060008881526020019081526020016000206004015414156109b3576040517f08c379a00000000000000000000000000000000000000000000000000000000081526004016109aa90610ff8565b60405180910390fd5b60004290506040518060c00160405280878152602001868152602001858152602001848152602001838152602001828152506000808981526020019081526020016000206000820151816000019080519060200190610a13929190610ace565b506020820151816001019080519060200190610a30929190610ace565b506040820151816002019080519060200190610a4d929190610ace565b506060820151816003019080519060200190610a6a929190610ace565b506080820151816004015560a082015181600501559050507fc095bb55c137c645af0208a55068dc614c53a8fcf828b01893ad60d0d6b9397e87878787878787604051610abd9796959493929190611033565b60405180910390a150505050505050565b828054610ada9061121e565b90600052602060002090601f016020900481019282610afc5760008555610b43565b82601f10610b1557805160ff1916838001178555610b43565b82800160010185558215610b43579182015b82811115610b42578251825591602001919060010190610b27565b5b509050610b509190610b94565b5090565b508054610b609061121e565b6000825580601f10610b725750610b91565b601f016020900490600052602060002090810190610b909190610b94565b5b50565b5b80821115610bad576000816000905550600101610b95565b5090565b6000610bc4610bbf846110ef565b6110be565b905082815260208101848484011115610bdc57600080fd5b610be78482856111b2565b509392505050565b600082601f830112610c0057600080fd5b8135610c10848260208601610bb1565b91505092915050565b600081359050610c2881611337565b92915050565b600060208284031215610c4057600080fd5b6000610c4e84828501610c19565b91505092915050565b60008060008060008060c08789031215610c7057600080fd5b6000610c7e89828a01610c19565b965050602087013567ffffffffffffffff811115610c9b57600080fd5b610ca789828a01610bef565b955050604087013567ffffffffffffffff811115610cc457600080fd5b610cd089828a01610bef565b945050606087013567ffffffffffffffff811115610ced57600080fd5b610cf989828a01610bef565b935050608087013567ffffffffffffffff811115610d1657600080fd5b610d2289828a01610bef565b92505060a0610d3389828a01610c19565b9150509295509295509295565b6000610d4c8383610efb565b60208301905092915050565b6000610d638261112f565b610d6d8185611152565b9350610d788361111f565b8060005b83811015610da9578151610d908882610d40565b9750610d9b83611145565b925050600181019050610d7c565b5085935050505092915050565b6000610dc18261113a565b610dcb8185611163565b9350610ddb8185602086016111c1565b610de481611326565b840191505092915050565b6000610dfc602783611163565b91507f50726f647563742077697468207468652073616d6520494420616c726561647960008301527f20657869737473000000000000000000000000000000000000000000000000006020830152604082019050919050565b6000610e62601383611163565b91507f496e76616c6964207472616e73616374696f6e000000000000000000000000006000830152602082019050919050565b6000610ea2602883611163565b91507f50726f6475637420776974682074686520676976656e20494420646f6573206e60008301527f6f742065786973740000000000000000000000000000000000000000000000006020830152604082019050919050565b610f04816111a8565b82525050565b610f13816111a8565b82525050565b60006020820190508181036000830152610f338184610d58565b905092915050565b600060c0820190508181036000830152610f558189610db6565b90508181036020830152610f698188610db6565b90508181036040830152610f7d8187610db6565b90508181036060830152610f918186610db6565b9050610fa06080830185610f0a565b610fad60a0830184610f0a565b979650505050505050565b60006020820190508181036000830152610fd181610def565b9050919050565b60006020820190508181036000830152610ff181610e55565b9050919050565b6000602082019050818103600083015261101181610e95565b9050919050565b600060208201905061102d6000830184610f0a565b92915050565b600060e082019050611048600083018a610f0a565b818103602083015261105a8189610db6565b9050818103604083015261106e8188610db6565b905081810360608301526110828187610db6565b905081810360808301526110968186610db6565b90506110a560a0830185610f0a565b6110b260c0830184610f0a565b98975050505050505050565b6000604051905081810181811067ffffffffffffffff821117156110e5576110e46112f7565b5b8060405250919050565b600067ffffffffffffffff82111561110a576111096112f7565b5b601f19601f8301169050602081019050919050565b6000819050602082019050919050565b600081519050919050565b600081519050919050565b6000602082019050919050565b600082825260208201905092915050565b600082825260208201905092915050565b600061117f826111a8565b915061118a836111a8565b92508282101561119d5761119c611299565b5b828203905092915050565b6000819050919050565b82818337600083830152505050565b60005b838110156111df5780820151818401526020810190506111c4565b838111156111ee576000848401525b50505050565b60006111ff826111a8565b9150600082141561121357611212611299565b5b600182039050919050565b6000600282049050600182168061123657607f821691505b6020821081141561124a576112496112c8565b5b50919050565b600061125b826111a8565b91507fffffffffffffffffffffffffffffffffffffffffffffffffffffffffffffffff82141561128e5761128d611299565b5b600182019050919050565b7f4e487b7100000000000000000000000000000000000000000000000000000000600052601160045260246000fd5b7f4e487b7100000000000000000000000000000000000000000000000000000000600052602260045260246000fd5b7f4e487b7100000000000000000000000000000000000000000000000000000000600052604160045260246000fd5b6000601f19601f8301169050919050565b611340816111a8565b811461134b57600080fd5b5056fea264697066735822122093a08ef487db33fdc36662ae0da90636c8c02965f587263cc6f995cfce8f3cad64736f6c63430008000033",
  "linkReferences": {},
  "deployedLinkReferences": {}
}