{
  "_format": "hh-sol-artifact-1",
  "contractName": "Product",
  "sourceName": "contracts/Greeter.sol",
  "abi": [
    {
      "anonymous": false,
      "inputs": [
        {
          "indexed": false,
          "internalType": "uint256",
          "name": "id",
          "type": "uint256"
        },
        {
          "indexed": false,
          "internalType": "string",
          "name": "name",
          "type": "string"
        },
        {
          "indexed": false,
          "internalType": "uint256",
          "name": "price",
          "type": "uint256"
        }
      ],
      "name": "ProductAdded",
      "type": "event"
    },
    {
      "inputs": [
        {
          "internalType": "uint256",
          "name": "id",
          "type": "uint256"
        },
        {
          "internalType": "string",
          "name": "name",
          "type": "string"
        },
        {
          "internalType": "uint256",
          "name": "price",
          "type": "uint256"
        }
      ],
      "name": "addProduct",
      "outputs": [],
      "stateMutability": "nonpayable",
      "type": "function"
    },
    {
      "inputs": [
        {
          "internalType": "uint256",
          "name": "id",
          "type": "uint256"
        }
      ],
      "name": "getProduct",
      "outputs": [
        {
          "internalType": "string",
          "name": "",
          "type": "string"
        },
        {
          "internalType": "uint256",
          "name": "",
          "type": "uint256"
        }
      ],
      "stateMutability": "view",
      "type": "function"
    }
  ],
  "bytecode": "0x608060405234801561001057600080fd5b506105fa806100206000396000f3fe608060405234801561001057600080fd5b50600436106100365760003560e01c80634268ff2d1461003b578063b9db15b414610057575b600080fd5b61005560048036038101906100509190610326565b610088565b005b610071600480360381019061006c91906102fd565b610119565b60405161007f9291906103d5565b60405180910390f35b60405180604001604052808381526020018281525060008085815260200190815260200160002060008201518160000190805190602001906100cb9291906101dd565b50602082015181600101559050507fcca07c742c5274e8b72111ba69566aa4442450bfc50bd897ea38d0170d1accfc83838360405161010c93929190610405565b60405180910390a1505050565b60606000806000848152602001908152602001600020600001600080858152602001908152602001600020600101548180546101549061050c565b80601f01602080910402602001604051908101604052809291908181526020018280546101809061050c565b80156101cd5780601f106101a2576101008083540402835291602001916101cd565b820191906000526020600020905b8154815290600101906020018083116101b057829003601f168201915b5050505050915091509150915091565b8280546101e99061050c565b90600052602060002090601f01602090048101928261020b5760008555610252565b82601f1061022457805160ff1916838001178555610252565b82800160010185558215610252579182015b82811115610251578251825591602001919060010190610236565b5b50905061025f9190610263565b5090565b5b8082111561027c576000816000905550600101610264565b5090565b600061029361028e84610474565b610443565b9050828152602081018484840111156102ab57600080fd5b6102b68482856104ca565b509392505050565b600082601f8301126102cf57600080fd5b81356102df848260208601610280565b91505092915050565b6000813590506102f7816105ad565b92915050565b60006020828403121561030f57600080fd5b600061031d848285016102e8565b91505092915050565b60008060006060848603121561033b57600080fd5b6000610349868287016102e8565b935050602084013567ffffffffffffffff81111561036657600080fd5b610372868287016102be565b9250506040610383868287016102e8565b9150509250925092565b6000610398826104a4565b6103a281856104af565b93506103b28185602086016104d9565b6103bb8161059c565b840191505092915050565b6103cf816104c0565b82525050565b600060408201905081810360008301526103ef818561038d565b90506103fe60208301846103c6565b9392505050565b600060608201905061041a60008301866103c6565b818103602083015261042c818561038d565b905061043b60408301846103c6565b949350505050565b6000604051905081810181811067ffffffffffffffff8211171561046a5761046961056d565b5b8060405250919050565b600067ffffffffffffffff82111561048f5761048e61056d565b5b601f19601f8301169050602081019050919050565b600081519050919050565b600082825260208201905092915050565b6000819050919050565b82818337600083830152505050565b60005b838110156104f75780820151818401526020810190506104dc565b83811115610506576000848401525b50505050565b6000600282049050600182168061052457607f821691505b602082108114156105385761053761053e565b5b50919050565b7f4e487b7100000000000000000000000000000000000000000000000000000000600052602260045260246000fd5b7f4e487b7100000000000000000000000000000000000000000000000000000000600052604160045260246000fd5b6000601f19601f8301169050919050565b6105b6816104c0565b81146105c157600080fd5b5056fea2646970667358221220785ed915dc35793bc5ac30929f29c3930fa87d99a7912ba08bd19ff17d45770764736f6c63430008000033",
  "linkReferences": {},
  "deployedLinkReferences": {}
}