{"contracts/Greeter.sol":{"Product":{"abi":[{"anonymous":false,"inputs":[{"indexed":false,"internalType":"uint256","name":"id","type":"uint256"},{"indexed":false,"internalType":"string","name":"name","type":"string"},{"indexed":false,"internalType":"string","name":"emei","type":"string"},{"indexed":false,"internalType":"string","name":"color","type":"string"},{"indexed":false,"internalType":"string","name":"size","type":"string"},{"indexed":false,"internalType":"uint256","name":"price","type":"uint256"},{"indexed":false,"internalType":"uint256","name":"timestamp","type":"uint256"}],"name":"ProductAdded","type":"event"},{"anonymous":false,"inputs":[{"indexed":false,"internalType":"uint256","name":"id","type":"uint256"}],"name":"ProductAuthenticated","type":"event"},{"anonymous":false,"inputs":[{"indexed":false,"internalType":"uint256","name":"id","type":"uint256"}],"name":"ProductRemoved","type":"event"},{"stateMutability":"payable","type":"fallback"},{"inputs":[{"internalType":"uint256","name":"id","type":"uint256"},{"internalType":"string","name":"name","type":"string"},{"internalType":"string","name":"emei","type":"string"},{"internalType":"string","name":"color","type":"string"},{"internalType":"string","name":"size","type":"string"},{"internalType":"uint256","name":"price","type":"uint256"}],"name":"addProduct","outputs":[],"stateMutability":"nonpayable","type":"function"},{"inputs":[{"internalType":"uint256","name":"id","type":"uint256"}],"name":"authenticateProduct","outputs":[{"internalType":"bool","name":"","type":"bool"}],"stateMutability":"nonpayable","type":"function"},{"inputs":[],"name":"getAuthenticationCounter","outputs":[{"internalType":"uint256","name":"","type":"uint256"}],"stateMutability":"view","type":"function"},{"inputs":[{"internalType":"uint256","name":"id","type":"uint256"}],"name":"getProduct","outputs":[{"internalType":"string","name":"","type":"string"},{"internalType":"string","name":"","type":"string"},{"internalType":"string","name":"","type":"string"},{"internalType":"string","name":"","type":"string"},{"internalType":"uint256","name":"","type":"uint256"},{"internalType":"uint256","name":"","type":"uint256"}],"stateMutability":"view","type":"function"},{"inputs":[],"name":"getProductCount","outputs":[{"internalType":"uint256","name":"","type":"uint256"}],"stateMutability":"view","type":"function"},{"inputs":[],"name":"getProductIds","outputs":[{"internalType":"uint256[]","name":"","type":"uint256[]"}],"stateMutability":"view","type":"function"},{"inputs":[{"internalType":"uint256","name":"id","type":"uint256"}],"name":"removeProduct","outputs":[],"stateMutability":"nonpayable","type":"function"},{"inputs":[{"internalType":"uint256","name":"id","type":"uint256"},{"internalType":"string","name":"name","type":"string"},{"internalType":"string","name":"emei","type":"string"},{"internalType":"string","name":"color","type":"string"},{"internalType":"string","name":"size","type":"string"},{"internalType":"uint256","name":"price","type":"uint256"}],"name":"updateProduct","outputs":[],"stateMutability":"nonpayable","type":"function"},{"stateMutability":"payable","type":"receive"}],"evm":{"bytecode":{"linkReferences":{},"object":"60806040526000600255600060035534801561001a57600080fd5b506114f38061002a6000396000f3fe60806040526004361061007f5760003560e01c8063b9db15b41161004e578063b9db15b414610169578063bdd01d23146101ab578063c1ccd96e146101d6578063fd77d9bc1461021357610086565b806306c61343146100c157806347428e7b146100ea5780634a348da9146101155780635ee95cae1461014057610086565b3661008657005b6040517f08c379a00000000000000000000000000000000000000000000000000000000081526004016100b89061113b565b60405180910390fd5b3480156100cd57600080fd5b506100e860048036038101906100e39190610d90565b61023c565b005b3480156100f657600080fd5b506100ff6103f0565b60405161010c9190611061565b60405180910390f35b34801561012157600080fd5b5061012a610448565b604051610137919061117b565b60405180910390f35b34801561014c57600080fd5b5061016760048036038101906101629190610d67565b610452565b005b34801561017557600080fd5b50610190600480360381019061018b9190610d67565b6106c1565b6040516101a29695949392919061109e565b60405180910390f35b3480156101b757600080fd5b506101c06109e8565b6040516101cd919061117b565b60405180910390f35b3480156101e257600080fd5b506101fd60048036038101906101f89190610d67565b6109f2565b60405161020a9190611083565b60405180910390f35b34801561021f57600080fd5b5061023a60048036038101906102359190610d90565b610a93565b005b60008060008881526020019081526020016000206004015414610294576040517f08c379a000000000000000000000000000000000000000000000000000000000815260040161028b9061111b565b60405180910390fd5b60004290506040518060c001604052808781526020018681526020018581526020018481526020018381526020018281525060008089815260200190815260200160002060008201518160000190805190602001906102f4929190610c07565b506020820151816001019080519060200190610311929190610c07565b50604082015181600201908051906020019061032e929190610c07565b50606082015181600301908051906020019061034b929190610c07565b506080820151816004015560a0820151816005015590505060018790806001815401808255809150506001900390600052602060002001600090919091909150556002600081548092919061039f906113bf565b91905055507fc095bb55c137c645af0208a55068dc614c53a8fcf828b01893ad60d0d6b9397e878787878787876040516103df9796959493929190611196565b60405180910390a150505050505050565b6060600180548060200260200160405190810160405280929190818152602001828054801561043e57602002820191906000526020600020905b81548152602001906001019080831161042a575b5050505050905090565b6000600254905090565b60008060008381526020019081526020016000206004015414156104ab576040517f08c379a00000000000000000000000000000000000000000000000000000000081526004016104a29061115b565b60405180910390fd5b600080828152602001908152602001600020600080820160006104ce9190610c8d565b6001820160006104de9190610c8d565b6002820160006104ee9190610c8d565b6003820160006104fe9190610c8d565b60048201600090556005820160009055505060005b60018054905081101561066e57816001828154811061055b577f4e487b7100000000000000000000000000000000000000000000000000000000600052603260045260246000fd5b9060005260206000200154141561065b57600180808054905061057e91906112d7565b815481106105b5577f4e487b7100000000000000000000000000000000000000000000000000000000600052603260045260246000fd5b9060005260206000200154600182815481106105fa577f4e487b7100000000000000000000000000000000000000000000000000000000600052603260045260246000fd5b90600052602060002001819055506001805480610640577f4e487b7100000000000000000000000000000000000000000000000000000000600052603160045260246000fd5b6001900381819060005260206000200160009055905561066e565b8080610666906113bf565b915050610513565b506002600081548092919061068290611363565b91905055507f07015631cff457b5b13492c2045e70c6305a0a4aa773e432e79abbe2cf52c1eb816040516106b6919061117b565b60405180910390a150565b6060806060806000806000806000898152602001908152602001600020600401541415610723576040517f08c379a000000000000000000000000000000000000000000000000000000000815260040161071a9061115b565b60405180910390fd5b6000808881526020019081526020016000206000016000808981526020019081526020016000206001016000808a81526020019081526020016000206002016000808b81526020019081526020016000206003016000808c8152602001908152602001600020600401546000808d8152602001908152602001600020600501548580546107af9061138d565b80601f01602080910402602001604051908101604052809291908181526020018280546107db9061138d565b80156108285780601f106107fd57610100808354040283529160200191610828565b820191906000526020600020905b81548152906001019060200180831161080b57829003601f168201915b5050505050955084805461083b9061138d565b80601f01602080910402602001604051908101604052809291908181526020018280546108679061138d565b80156108b45780601f10610889576101008083540402835291602001916108b4565b820191906000526020600020905b81548152906001019060200180831161089757829003601f168201915b505050505094508380546108c79061138d565b80601f01602080910402602001604051908101604052809291908181526020018280546108f39061138d565b80156109405780601f1061091557610100808354040283529160200191610940565b820191906000526020600020905b81548152906001019060200180831161092357829003601f168201915b505050505093508280546109539061138d565b80601f016020809104026020016040519081016040528092919081815260200182805461097f9061138d565b80156109cc5780601f106109a1576101008083540402835291602001916109cc565b820191906000526020600020905b8154815290600101906020018083116109af57829003601f168201915b5050505050925095509550955095509550955091939550919395565b6000600354905090565b600080600090505b600180549050811015610a88578260018281548110610a42577f4e487b7100000000000000000000000000000000000000000000000000000000600052603260045260246000fd5b90600052602060002001541415610a755760036000815480929190610a66906113bf565b91905055506001915050610a8e565b8080610a80906113bf565b9150506109fa565b50600090505b919050565b6000806000888152602001908152602001600020600401541415610aec576040517f08c379a0000000000000000000000000000000000000000000000000000000008152600401610ae39061115b565b60405180910390fd5b60004290506040518060c00160405280878152602001868152602001858152602001848152602001838152602001828152506000808981526020019081526020016000206000820151816000019080519060200190610b4c929190610c07565b506020820151816001019080519060200190610b69929190610c07565b506040820151816002019080519060200190610b86929190610c07565b506060820151816003019080519060200190610ba3929190610c07565b506080820151816004015560a082015181600501559050507fc095bb55c137c645af0208a55068dc614c53a8fcf828b01893ad60d0d6b9397e87878787878787604051610bf69796959493929190611196565b60405180910390a150505050505050565b828054610c139061138d565b90600052602060002090601f016020900481019282610c355760008555610c7c565b82601f10610c4e57805160ff1916838001178555610c7c565b82800160010185558215610c7c579182015b82811115610c7b578251825591602001919060010190610c60565b5b509050610c899190610ccd565b5090565b508054610c999061138d565b6000825580601f10610cab5750610cca565b601f016020900490600052602060002090810190610cc99190610ccd565b5b50565b5b80821115610ce6576000816000905550600101610cce565b5090565b6000610cfd610cf884611252565b611221565b905082815260208101848484011115610d1557600080fd5b610d20848285611321565b509392505050565b600082601f830112610d3957600080fd5b8135610d49848260208601610cea565b91505092915050565b600081359050610d61816114a6565b92915050565b600060208284031215610d7957600080fd5b6000610d8784828501610d52565b91505092915050565b60008060008060008060c08789031215610da957600080fd5b6000610db789828a01610d52565b965050602087013567ffffffffffffffff811115610dd457600080fd5b610de089828a01610d28565b955050604087013567ffffffffffffffff811115610dfd57600080fd5b610e0989828a01610d28565b945050606087013567ffffffffffffffff811115610e2657600080fd5b610e3289828a01610d28565b935050608087013567ffffffffffffffff811115610e4f57600080fd5b610e5b89828a01610d28565b92505060a0610e6c89828a01610d52565b9150509295509295509295565b6000610e858383611043565b60208301905092915050565b6000610e9c82611292565b610ea681856112b5565b9350610eb183611282565b8060005b83811015610ee2578151610ec98882610e79565b9750610ed4836112a8565b925050600181019050610eb5565b5085935050505092915050565b610ef88161130b565b82525050565b6000610f098261129d565b610f1381856112c6565b9350610f23818560208601611330565b610f2c81611495565b840191505092915050565b6000610f446027836112c6565b91507f50726f647563742077697468207468652073616d6520494420616c726561647960008301527f20657869737473000000000000000000000000000000000000000000000000006020830152604082019050919050565b6000610faa6013836112c6565b91507f496e76616c6964207472616e73616374696f6e000000000000000000000000006000830152602082019050919050565b6000610fea6028836112c6565b91507f50726f6475637420776974682074686520676976656e20494420646f6573206e60008301527f6f742065786973740000000000000000000000000000000000000000000000006020830152604082019050919050565b61104c81611317565b82525050565b61105b81611317565b82525050565b6000602082019050818103600083015261107b8184610e91565b905092915050565b60006020820190506110986000830184610eef565b92915050565b600060c08201905081810360008301526110b88189610efe565b905081810360208301526110cc8188610efe565b905081810360408301526110e08187610efe565b905081810360608301526110f48186610efe565b90506111036080830185611052565b61111060a0830184611052565b979650505050505050565b6000602082019050818103600083015261113481610f37565b9050919050565b6000602082019050818103600083015261115481610f9d565b9050919050565b6000602082019050818103600083015261117481610fdd565b9050919050565b60006020820190506111906000830184611052565b92915050565b600060e0820190506111ab600083018a611052565b81810360208301526111bd8189610efe565b905081810360408301526111d18188610efe565b905081810360608301526111e58187610efe565b905081810360808301526111f98186610efe565b905061120860a0830185611052565b61121560c0830184611052565b98975050505050505050565b6000604051905081810181811067ffffffffffffffff8211171561124857611247611466565b5b8060405250919050565b600067ffffffffffffffff82111561126d5761126c611466565b5b601f19601f8301169050602081019050919050565b6000819050602082019050919050565b600081519050919050565b600081519050919050565b6000602082019050919050565b600082825260208201905092915050565b600082825260208201905092915050565b60006112e282611317565b91506112ed83611317565b925082821015611300576112ff611408565b5b828203905092915050565b60008115159050919050565b6000819050919050565b82818337600083830152505050565b60005b8381101561134e578082015181840152602081019050611333565b8381111561135d576000848401525b50505050565b600061136e82611317565b9150600082141561138257611381611408565b5b600182039050919050565b600060028204905060018216806113a557607f821691505b602082108114156113b9576113b8611437565b5b50919050565b60006113ca82611317565b91507fffffffffffffffffffffffffffffffffffffffffffffffffffffffffffffffff8214156113fd576113fc611408565b5b600182019050919050565b7f4e487b7100000000000000000000000000000000000000000000000000000000600052601160045260246000fd5b7f4e487b7100000000000000000000000000000000000000000000000000000000600052602260045260246000fd5b7f4e487b7100000000000000000000000000000000000000000000000000000000600052604160045260246000fd5b6000601f19601f8301169050919050565b6114af81611317565b81146114ba57600080fd5b5056fea2646970667358221220079c31a1332fc2f22faae8810181a80269b3850733b8f3c939b0be498bb2ebc164736f6c63430008000033","opcodes":"PUSH1 0x80 PUSH1 0x40 MSTORE PUSH1 0x0 PUSH1 0x2 SSTORE PUSH1 0x0 PUSH1 0x3 SSTORE CALLVALUE DUP1 ISZERO PUSH2 0x1A JUMPI PUSH1 0x0 DUP1 REVERT JUMPDEST POP PUSH2 0x14F3 DUP1 PUSH2 0x2A PUSH1 0x0 CODECOPY PUSH1 0x0 RETURN INVALID PUSH1 0x80 PUSH1 0x40 MSTORE PUSH1 0x4 CALLDATASIZE LT PUSH2 0x7F JUMPI PUSH1 0x0 CALLDATALOAD PUSH1 0xE0 SHR DUP1 PUSH4 0xB9DB15B4 GT PUSH2 0x4E JUMPI DUP1 PUSH4 0xB9DB15B4 EQ PUSH2 0x169 JUMPI DUP1 PUSH4 0xBDD01D23 EQ PUSH2 0x1AB JUMPI DUP1 PUSH4 0xC1CCD96E EQ PUSH2 0x1D6 JUMPI DUP1 PUSH4 0xFD77D9BC EQ PUSH2 0x213 JUMPI PUSH2 0x86 JUMP JUMPDEST DUP1 PUSH4 0x6C61343 EQ PUSH2 0xC1 JUMPI DUP1 PUSH4 0x47428E7B EQ PUSH2 0xEA JUMPI DUP1 PUSH4 0x4A348DA9 EQ PUSH2 0x115 JUMPI DUP1 PUSH4 0x5EE95CAE EQ PUSH2 0x140 JUMPI PUSH2 0x86 JUMP JUMPDEST CALLDATASIZE PUSH2 0x86 JUMPI STOP JUMPDEST PUSH1 0x40 MLOAD PUSH32 0x8C379A000000000000000000000000000000000000000000000000000000000 DUP2 MSTORE PUSH1 0x4 ADD PUSH2 0xB8 SWAP1 PUSH2 0x113B JUMP JUMPDEST PUSH1 0x40 MLOAD DUP1 SWAP2 SUB SWAP1 REVERT JUMPDEST CALLVALUE DUP1 ISZERO PUSH2 0xCD JUMPI PUSH1 0x0 DUP1 REVERT JUMPDEST POP PUSH2 0xE8 PUSH1 0x4 DUP1 CALLDATASIZE SUB DUP2 ADD SWAP1 PUSH2 0xE3 SWAP2 SWAP1 PUSH2 0xD90 JUMP JUMPDEST PUSH2 0x23C JUMP JUMPDEST STOP JUMPDEST CALLVALUE DUP1 ISZERO PUSH2 0xF6 JUMPI PUSH1 0x0 DUP1 REVERT JUMPDEST POP PUSH2 0xFF PUSH2 0x3F0 JUMP JUMPDEST PUSH1 0x40 MLOAD PUSH2 0x10C SWAP2 SWAP1 PUSH2 0x1061 JUMP JUMPDEST PUSH1 0x40 MLOAD DUP1 SWAP2 SUB SWAP1 RETURN JUMPDEST CALLVALUE DUP1 ISZERO PUSH2 0x121 JUMPI PUSH1 0x0 DUP1 REVERT JUMPDEST POP PUSH2 0x12A PUSH2 0x448 JUMP JUMPDEST PUSH1 0x40 MLOAD PUSH2 0x137 SWAP2 SWAP1 PUSH2 0x117B JUMP JUMPDEST PUSH1 0x40 MLOAD DUP1 SWAP2 SUB SWAP1 RETURN JUMPDEST CALLVALUE DUP1 ISZERO PUSH2 0x14C JUMPI PUSH1 0x0 DUP1 REVERT JUMPDEST POP PUSH2 0x167 PUSH1 0x4 DUP1 CALLDATASIZE SUB DUP2 ADD SWAP1 PUSH2 0x162 SWAP2 SWAP1 PUSH2 0xD67 JUMP JUMPDEST PUSH2 0x452 JUMP JUMPDEST STOP JUMPDEST CALLVALUE DUP1 ISZERO PUSH2 0x175 JUMPI PUSH1 0x0 DUP1 REVERT JUMPDEST POP PUSH2 0x190 PUSH1 0x4 DUP1 CALLDATASIZE SUB DUP2 ADD SWAP1 PUSH2 0x18B SWAP2 SWAP1 PUSH2 0xD67 JUMP JUMPDEST PUSH2 0x6C1 JUMP JUMPDEST PUSH1 0x40 MLOAD PUSH2 0x1A2 SWAP7 SWAP6 SWAP5 SWAP4 SWAP3 SWAP2 SWAP1 PUSH2 0x109E JUMP JUMPDEST PUSH1 0x40 MLOAD DUP1 SWAP2 SUB SWAP1 RETURN JUMPDEST CALLVALUE DUP1 ISZERO PUSH2 0x1B7 JUMPI PUSH1 0x0 DUP1 REVERT JUMPDEST POP PUSH2 0x1C0 PUSH2 0x9E8 JUMP JUMPDEST PUSH1 0x40 MLOAD PUSH2 0x1CD SWAP2 SWAP1 PUSH2 0x117B JUMP JUMPDEST PUSH1 0x40 MLOAD DUP1 SWAP2 SUB SWAP1 RETURN JUMPDEST CALLVALUE DUP1 ISZERO PUSH2 0x1E2 JUMPI PUSH1 0x0 DUP1 REVERT JUMPDEST POP PUSH2 0x1FD PUSH1 0x4 DUP1 CALLDATASIZE SUB DUP2 ADD SWAP1 PUSH2 0x1F8 SWAP2 SWAP1 PUSH2 0xD67 JUMP JUMPDEST PUSH2 0x9F2 JUMP JUMPDEST PUSH1 0x40 MLOAD PUSH2 0x20A SWAP2 SWAP1 PUSH2 0x1083 JUMP JUMPDEST PUSH1 0x40 MLOAD DUP1 SWAP2 SUB SWAP1 RETURN JUMPDEST CALLVALUE DUP1 ISZERO PUSH2 0x21F JUMPI PUSH1 0x0 DUP1 REVERT JUMPDEST POP PUSH2 0x23A PUSH1 0x4 DUP1 CALLDATASIZE SUB DUP2 ADD SWAP1 PUSH2 0x235 SWAP2 SWAP1 PUSH2 0xD90 JUMP JUMPDEST PUSH2 0xA93 JUMP JUMPDEST STOP JUMPDEST PUSH1 0x0 DUP1 PUSH1 0x0 DUP9 DUP2 MSTORE PUSH1 0x20 ADD SWAP1 DUP2 MSTORE PUSH1 0x20 ADD PUSH1 0x0 KECCAK256 PUSH1 0x4 ADD SLOAD EQ PUSH2 0x294 JUMPI PUSH1 0x40 MLOAD PUSH32 0x8C379A000000000000000000000000000000000000000000000000000000000 DUP2 MSTORE PUSH1 0x4 ADD PUSH2 0x28B SWAP1 PUSH2 0x111B JUMP JUMPDEST PUSH1 0x40 MLOAD DUP1 SWAP2 SUB SWAP1 REVERT JUMPDEST PUSH1 0x0 TIMESTAMP SWAP1 POP PUSH1 0x40 MLOAD DUP1 PUSH1 0xC0 ADD PUSH1 0x40 MSTORE DUP1 DUP8 DUP2 MSTORE PUSH1 0x20 ADD DUP7 DUP2 MSTORE PUSH1 0x20 ADD DUP6 DUP2 MSTORE PUSH1 0x20 ADD DUP5 DUP2 MSTORE PUSH1 0x20 ADD DUP4 DUP2 MSTORE PUSH1 0x20 ADD DUP3 DUP2 MSTORE POP PUSH1 0x0 DUP1 DUP10 DUP2 MSTORE PUSH1 0x20 ADD SWAP1 DUP2 MSTORE PUSH1 0x20 ADD PUSH1 0x0 KECCAK256 PUSH1 0x0 DUP3 ADD MLOAD DUP2 PUSH1 0x0 ADD SWAP1 DUP1 MLOAD SWAP1 PUSH1 0x20 ADD SWAP1 PUSH2 0x2F4 SWAP3 SWAP2 SWAP1 PUSH2 0xC07 JUMP JUMPDEST POP PUSH1 0x20 DUP3 ADD MLOAD DUP2 PUSH1 0x1 ADD SWAP1 DUP1 MLOAD SWAP1 PUSH1 0x20 ADD SWAP1 PUSH2 0x311 SWAP3 SWAP2 SWAP1 PUSH2 0xC07 JUMP JUMPDEST POP PUSH1 0x40 DUP3 ADD MLOAD DUP2 PUSH1 0x2 ADD SWAP1 DUP1 MLOAD SWAP1 PUSH1 0x20 ADD SWAP1 PUSH2 0x32E SWAP3 SWAP2 SWAP1 PUSH2 0xC07 JUMP JUMPDEST POP PUSH1 0x60 DUP3 ADD MLOAD DUP2 PUSH1 0x3 ADD SWAP1 DUP1 MLOAD SWAP1 PUSH1 0x20 ADD SWAP1 PUSH2 0x34B SWAP3 SWAP2 SWAP1 PUSH2 0xC07 JUMP JUMPDEST POP PUSH1 0x80 DUP3 ADD MLOAD DUP2 PUSH1 0x4 ADD SSTORE PUSH1 0xA0 DUP3 ADD MLOAD DUP2 PUSH1 0x5 ADD SSTORE SWAP1 POP POP PUSH1 0x1 DUP8 SWAP1 DUP1 PUSH1 0x1 DUP2 SLOAD ADD DUP1 DUP3 SSTORE DUP1 SWAP2 POP POP PUSH1 0x1 SWAP1 SUB SWAP1 PUSH1 0x0 MSTORE PUSH1 0x20 PUSH1 0x0 KECCAK256 ADD PUSH1 0x0 SWAP1 SWAP2 SWAP1 SWAP2 SWAP1 SWAP2 POP SSTORE PUSH1 0x2 PUSH1 0x0 DUP2 SLOAD DUP1 SWAP3 SWAP2 SWAP1 PUSH2 0x39F SWAP1 PUSH2 0x13BF JUMP JUMPDEST SWAP2 SWAP1 POP SSTORE POP PUSH32 0xC095BB55C137C645AF0208A55068DC614C53A8FCF828B01893AD60D0D6B9397E DUP8 DUP8 DUP8 DUP8 DUP8 DUP8 DUP8 PUSH1 0x40 MLOAD PUSH2 0x3DF SWAP8 SWAP7 SWAP6 SWAP5 SWAP4 SWAP3 SWAP2 SWAP1 PUSH2 0x1196 JUMP JUMPDEST PUSH1 0x40 MLOAD DUP1 SWAP2 SUB SWAP1 LOG1 POP POP POP POP POP POP POP JUMP JUMPDEST PUSH1 0x60 PUSH1 0x1 DUP1 SLOAD DUP1 PUSH1 0x20 MUL PUSH1 0x20 ADD PUSH1 0x40 MLOAD SWAP1 DUP2 ADD PUSH1 0x40 MSTORE DUP1 SWAP3 SWAP2 SWAP1 DUP2 DUP2 MSTORE PUSH1 0x20 ADD DUP3 DUP1 SLOAD DUP1 ISZERO PUSH2 0x43E JUMPI PUSH1 0x20 MUL DUP3 ADD SWAP2 SWAP1 PUSH1 0x0 MSTORE PUSH1 0x20 PUSH1 0x0 KECCAK256 SWAP1 JUMPDEST DUP2 SLOAD DUP2 MSTORE PUSH1 0x20 ADD SWAP1 PUSH1 0x1 ADD SWAP1 DUP1 DUP4 GT PUSH2 0x42A JUMPI JUMPDEST POP POP POP POP POP SWAP1 POP SWAP1 JUMP JUMPDEST PUSH1 0x0 PUSH1 0x2 SLOAD SWAP1 POP SWAP1 JUMP JUMPDEST PUSH1 0x0 DUP1 PUSH1 0x0 DUP4 DUP2 MSTORE PUSH1 0x20 ADD SWAP1 DUP2 MSTORE PUSH1 0x20 ADD PUSH1 0x0 KECCAK256 PUSH1 0x4 ADD SLOAD EQ ISZERO PUSH2 0x4AB JUMPI PUSH1 0x40 MLOAD PUSH32 0x8C379A000000000000000000000000000000000000000000000000000000000 DUP2 MSTORE PUSH1 0x4 ADD PUSH2 0x4A2 SWAP1 PUSH2 0x115B JUMP JUMPDEST PUSH1 0x40 MLOAD DUP1 SWAP2 SUB SWAP1 REVERT JUMPDEST PUSH1 0x0 DUP1 DUP3 DUP2 MSTORE PUSH1 0x20 ADD SWAP1 DUP2 MSTORE PUSH1 0x20 ADD PUSH1 0x0 KECCAK256 PUSH1 0x0 DUP1 DUP3 ADD PUSH1 0x0 PUSH2 0x4CE SWAP2 SWAP1 PUSH2 0xC8D JUMP JUMPDEST PUSH1 0x1 DUP3 ADD PUSH1 0x0 PUSH2 0x4DE SWAP2 SWAP1 PUSH2 0xC8D JUMP JUMPDEST PUSH1 0x2 DUP3 ADD PUSH1 0x0 PUSH2 0x4EE SWAP2 SWAP1 PUSH2 0xC8D JUMP JUMPDEST PUSH1 0x3 DUP3 ADD PUSH1 0x0 PUSH2 0x4FE SWAP2 SWAP1 PUSH2 0xC8D JUMP JUMPDEST PUSH1 0x4 DUP3 ADD PUSH1 0x0 SWAP1 SSTORE PUSH1 0x5 DUP3 ADD PUSH1 0x0 SWAP1 SSTORE POP POP PUSH1 0x0 JUMPDEST PUSH1 0x1 DUP1 SLOAD SWAP1 POP DUP2 LT ISZERO PUSH2 0x66E JUMPI DUP2 PUSH1 0x1 DUP3 DUP2 SLOAD DUP2 LT PUSH2 0x55B JUMPI PUSH32 0x4E487B7100000000000000000000000000000000000000000000000000000000 PUSH1 0x0 MSTORE PUSH1 0x32 PUSH1 0x4 MSTORE PUSH1 0x24 PUSH1 0x0 REVERT JUMPDEST SWAP1 PUSH1 0x0 MSTORE PUSH1 0x20 PUSH1 0x0 KECCAK256 ADD SLOAD EQ ISZERO PUSH2 0x65B JUMPI PUSH1 0x1 DUP1 DUP1 DUP1 SLOAD SWAP1 POP PUSH2 0x57E SWAP2 SWAP1 PUSH2 0x12D7 JUMP JUMPDEST DUP2 SLOAD DUP2 LT PUSH2 0x5B5 JUMPI PUSH32 0x4E487B7100000000000000000000000000000000000000000000000000000000 PUSH1 0x0 MSTORE PUSH1 0x32 PUSH1 0x4 MSTORE PUSH1 0x24 PUSH1 0x0 REVERT JUMPDEST SWAP1 PUSH1 0x0 MSTORE PUSH1 0x20 PUSH1 0x0 KECCAK256 ADD SLOAD PUSH1 0x1 DUP3 DUP2 SLOAD DUP2 LT PUSH2 0x5FA JUMPI PUSH32 0x4E487B7100000000000000000000000000000000000000000000000000000000 PUSH1 0x0 MSTORE PUSH1 0x32 PUSH1 0x4 MSTORE PUSH1 0x24 PUSH1 0x0 REVERT JUMPDEST SWAP1 PUSH1 0x0 MSTORE PUSH1 0x20 PUSH1 0x0 KECCAK256 ADD DUP2 SWAP1 SSTORE POP PUSH1 0x1 DUP1 SLOAD DUP1 PUSH2 0x640 JUMPI PUSH32 0x4E487B7100000000000000000000000000000000000000000000000000000000 PUSH1 0x0 MSTORE PUSH1 0x31 PUSH1 0x4 MSTORE PUSH1 0x24 PUSH1 0x0 REVERT JUMPDEST PUSH1 0x1 SWAP1 SUB DUP2 DUP2 SWAP1 PUSH1 0x0 MSTORE PUSH1 0x20 PUSH1 0x0 KECCAK256 ADD PUSH1 0x0 SWAP1 SSTORE SWAP1 SSTORE PUSH2 0x66E JUMP JUMPDEST DUP1 DUP1 PUSH2 0x666 SWAP1 PUSH2 0x13BF JUMP JUMPDEST SWAP2 POP POP PUSH2 0x513 JUMP JUMPDEST POP PUSH1 0x2 PUSH1 0x0 DUP2 SLOAD DUP1 SWAP3 SWAP2 SWAP1 PUSH2 0x682 SWAP1 PUSH2 0x1363 JUMP JUMPDEST SWAP2 SWAP1 POP SSTORE POP PUSH32 0x7015631CFF457B5B13492C2045E70C6305A0A4AA773E432E79ABBE2CF52C1EB DUP2 PUSH1 0x40 MLOAD PUSH2 0x6B6 SWAP2 SWAP1 PUSH2 0x117B JUMP JUMPDEST PUSH1 0x40 MLOAD DUP1 SWAP2 SUB SWAP1 LOG1 POP JUMP JUMPDEST PUSH1 0x60 DUP1 PUSH1 0x60 DUP1 PUSH1 0x0 DUP1 PUSH1 0x0 DUP1 PUSH1 0x0 DUP10 DUP2 MSTORE PUSH1 0x20 ADD SWAP1 DUP2 MSTORE PUSH1 0x20 ADD PUSH1 0x0 KECCAK256 PUSH1 0x4 ADD SLOAD EQ ISZERO PUSH2 0x723 JUMPI PUSH1 0x40 MLOAD PUSH32 0x8C379A000000000000000000000000000000000000000000000000000000000 DUP2 MSTORE PUSH1 0x4 ADD PUSH2 0x71A SWAP1 PUSH2 0x115B JUMP JUMPDEST PUSH1 0x40 MLOAD DUP1 SWAP2 SUB SWAP1 REVERT JUMPDEST PUSH1 0x0 DUP1 DUP9 DUP2 MSTORE PUSH1 0x20 ADD SWAP1 DUP2 MSTORE PUSH1 0x20 ADD PUSH1 0x0 KECCAK256 PUSH1 0x0 ADD PUSH1 0x0 DUP1 DUP10 DUP2 MSTORE PUSH1 0x20 ADD SWAP1 DUP2 MSTORE PUSH1 0x20 ADD PUSH1 0x0 KECCAK256 PUSH1 0x1 ADD PUSH1 0x0 DUP1 DUP11 DUP2 MSTORE PUSH1 0x20 ADD SWAP1 DUP2 MSTORE PUSH1 0x20 ADD PUSH1 0x0 KECCAK256 PUSH1 0x2 ADD PUSH1 0x0 DUP1 DUP12 DUP2 MSTORE PUSH1 0x20 ADD SWAP1 DUP2 MSTORE PUSH1 0x20 ADD PUSH1 0x0 KECCAK256 PUSH1 0x3 ADD PUSH1 0x0 DUP1 DUP13 DUP2 MSTORE PUSH1 0x20 ADD SWAP1 DUP2 MSTORE PUSH1 0x20 ADD PUSH1 0x0 KECCAK256 PUSH1 0x4 ADD SLOAD PUSH1 0x0 DUP1 DUP14 DUP2 MSTORE PUSH1 0x20 ADD SWAP1 DUP2 MSTORE PUSH1 0x20 ADD PUSH1 0x0 KECCAK256 PUSH1 0x5 ADD SLOAD DUP6 DUP1 SLOAD PUSH2 0x7AF SWAP1 PUSH2 0x138D JUMP JUMPDEST DUP1 PUSH1 0x1F ADD PUSH1 0x20 DUP1 SWAP2 DIV MUL PUSH1 0x20 ADD PUSH1 0x40 MLOAD SWAP1 DUP2 ADD PUSH1 0x40 MSTORE DUP1 SWAP3 SWAP2 SWAP1 DUP2 DUP2 MSTORE PUSH1 0x20 ADD DUP3 DUP1 SLOAD PUSH2 0x7DB SWAP1 PUSH2 0x138D JUMP JUMPDEST DUP1 ISZERO PUSH2 0x828 JUMPI DUP1 PUSH1 0x1F LT PUSH2 0x7FD JUMPI PUSH2 0x100 DUP1 DUP4 SLOAD DIV MUL DUP4 MSTORE SWAP2 PUSH1 0x20 ADD SWAP2 PUSH2 0x828 JUMP JUMPDEST DUP3 ADD SWAP2 SWAP1 PUSH1 0x0 MSTORE PUSH1 0x20 PUSH1 0x0 KECCAK256 SWAP1 JUMPDEST DUP2 SLOAD DUP2 MSTORE SWAP1 PUSH1 0x1 ADD SWAP1 PUSH1 0x20 ADD DUP1 DUP4 GT PUSH2 0x80B JUMPI DUP3 SWAP1 SUB PUSH1 0x1F AND DUP3 ADD SWAP2 JUMPDEST POP POP POP POP POP SWAP6 POP DUP5 DUP1 SLOAD PUSH2 0x83B SWAP1 PUSH2 0x138D JUMP JUMPDEST DUP1 PUSH1 0x1F ADD PUSH1 0x20 DUP1 SWAP2 DIV MUL PUSH1 0x20 ADD PUSH1 0x40 MLOAD SWAP1 DUP2 ADD PUSH1 0x40 MSTORE DUP1 SWAP3 SWAP2 SWAP1 DUP2 DUP2 MSTORE PUSH1 0x20 ADD DUP3 DUP1 SLOAD PUSH2 0x867 SWAP1 PUSH2 0x138D JUMP JUMPDEST DUP1 ISZERO PUSH2 0x8B4 JUMPI DUP1 PUSH1 0x1F LT PUSH2 0x889 JUMPI PUSH2 0x100 DUP1 DUP4 SLOAD DIV MUL DUP4 MSTORE SWAP2 PUSH1 0x20 ADD SWAP2 PUSH2 0x8B4 JUMP JUMPDEST DUP3 ADD SWAP2 SWAP1 PUSH1 0x0 MSTORE PUSH1 0x20 PUSH1 0x0 KECCAK256 SWAP1 JUMPDEST DUP2 SLOAD DUP2 MSTORE SWAP1 PUSH1 0x1 ADD SWAP1 PUSH1 0x20 ADD DUP1 DUP4 GT PUSH2 0x897 JUMPI DUP3 SWAP1 SUB PUSH1 0x1F AND DUP3 ADD SWAP2 JUMPDEST POP POP POP POP POP SWAP5 POP DUP4 DUP1 SLOAD PUSH2 0x8C7 SWAP1 PUSH2 0x138D JUMP JUMPDEST DUP1 PUSH1 0x1F ADD PUSH1 0x20 DUP1 SWAP2 DIV MUL PUSH1 0x20 ADD PUSH1 0x40 MLOAD SWAP1 DUP2 ADD PUSH1 0x40 MSTORE DUP1 SWAP3 SWAP2 SWAP1 DUP2 DUP2 MSTORE PUSH1 0x20 ADD DUP3 DUP1 SLOAD PUSH2 0x8F3 SWAP1 PUSH2 0x138D JUMP JUMPDEST DUP1 ISZERO PUSH2 0x940 JUMPI DUP1 PUSH1 0x1F LT PUSH2 0x915 JUMPI PUSH2 0x100 DUP1 DUP4 SLOAD DIV MUL DUP4 MSTORE SWAP2 PUSH1 0x20 ADD SWAP2 PUSH2 0x940 JUMP JUMPDEST DUP3 ADD SWAP2 SWAP1 PUSH1 0x0 MSTORE PUSH1 0x20 PUSH1 0x0 KECCAK256 SWAP1 JUMPDEST DUP2 SLOAD DUP2 MSTORE SWAP1 PUSH1 0x1 ADD SWAP1 PUSH1 0x20 ADD DUP1 DUP4 GT PUSH2 0x923 JUMPI DUP3 SWAP1 SUB PUSH1 0x1F AND DUP3 ADD SWAP2 JUMPDEST POP POP POP POP POP SWAP4 POP DUP3 DUP1 SLOAD PUSH2 0x953 SWAP1 PUSH2 0x138D JUMP JUMPDEST DUP1 PUSH1 0x1F ADD PUSH1 0x20 DUP1 SWAP2 DIV MUL PUSH1 0x20 ADD PUSH1 0x40 MLOAD SWAP1 DUP2 ADD PUSH1 0x40 MSTORE DUP1 SWAP3 SWAP2 SWAP1 DUP2 DUP2 MSTORE PUSH1 0x20 ADD DUP3 DUP1 SLOAD PUSH2 0x97F SWAP1 PUSH2 0x138D JUMP JUMPDEST DUP1 ISZERO PUSH2 0x9CC JUMPI DUP1 PUSH1 0x1F LT PUSH2 0x9A1 JUMPI PUSH2 0x100 DUP1 DUP4 SLOAD DIV MUL DUP4 MSTORE SWAP2 PUSH1 0x20 ADD SWAP2 PUSH2 0x9CC JUMP JUMPDEST DUP3 ADD SWAP2 SWAP1 PUSH1 0x0 MSTORE PUSH1 0x20 PUSH1 0x0 KECCAK256 SWAP1 JUMPDEST DUP2 SLOAD DUP2 MSTORE SWAP1 PUSH1 0x1 ADD SWAP1 PUSH1 0x20 ADD DUP1 DUP4 GT PUSH2 0x9AF JUMPI DUP3 SWAP1 SUB PUSH1 0x1F AND DUP3 ADD SWAP2 JUMPDEST POP POP POP POP POP SWAP3 POP SWAP6 POP SWAP6 POP SWAP6 POP SWAP6 POP SWAP6 POP SWAP6 POP SWAP2 SWAP4 SWAP6 POP SWAP2 SWAP4 SWAP6 JUMP JUMPDEST PUSH1 0x0 PUSH1 0x3 SLOAD SWAP1 POP SWAP1 JUMP JUMPDEST PUSH1 0x0 DUP1 PUSH1 0x0 SWAP1 POP JUMPDEST PUSH1 0x1 DUP1 SLOAD SWAP1 POP DUP2 LT ISZERO PUSH2 0xA88 JUMPI DUP3 PUSH1 0x1 DUP3 DUP2 SLOAD DUP2 LT PUSH2 0xA42 JUMPI PUSH32 0x4E487B7100000000000000000000000000000000000000000000000000000000 PUSH1 0x0 MSTORE PUSH1 0x32 PUSH1 0x4 MSTORE PUSH1 0x24 PUSH1 0x0 REVERT JUMPDEST SWAP1 PUSH1 0x0 MSTORE PUSH1 0x20 PUSH1 0x0 KECCAK256 ADD SLOAD EQ ISZERO PUSH2 0xA75 JUMPI PUSH1 0x3 PUSH1 0x0 DUP2 SLOAD DUP1 SWAP3 SWAP2 SWAP1 PUSH2 0xA66 SWAP1 PUSH2 0x13BF JUMP JUMPDEST SWAP2 SWAP1 POP SSTORE POP PUSH1 0x1 SWAP2 POP POP PUSH2 0xA8E JUMP JUMPDEST DUP1 DUP1 PUSH2 0xA80 SWAP1 PUSH2 0x13BF JUMP JUMPDEST SWAP2 POP POP PUSH2 0x9FA JUMP JUMPDEST POP PUSH1 0x0 SWAP1 POP JUMPDEST SWAP2 SWAP1 POP JUMP JUMPDEST PUSH1 0x0 DUP1 PUSH1 0x0 DUP9 DUP2 MSTORE PUSH1 0x20 ADD SWAP1 DUP2 MSTORE PUSH1 0x20 ADD PUSH1 0x0 KECCAK256 PUSH1 0x4 ADD SLOAD EQ ISZERO PUSH2 0xAEC JUMPI PUSH1 0x40 MLOAD PUSH32 0x8C379A000000000000000000000000000000000000000000000000000000000 DUP2 MSTORE PUSH1 0x4 ADD PUSH2 0xAE3 SWAP1 PUSH2 0x115B JUMP JUMPDEST PUSH1 0x40 MLOAD DUP1 SWAP2 SUB SWAP1 REVERT JUMPDEST PUSH1 0x0 TIMESTAMP SWAP1 POP PUSH1 0x40 MLOAD DUP1 PUSH1 0xC0 ADD PUSH1 0x40 MSTORE DUP1 DUP8 DUP2 MSTORE PUSH1 0x20 ADD DUP7 DUP2 MSTORE PUSH1 0x20 ADD DUP6 DUP2 MSTORE PUSH1 0x20 ADD DUP5 DUP2 MSTORE PUSH1 0x20 ADD DUP4 DUP2 MSTORE PUSH1 0x20 ADD DUP3 DUP2 MSTORE POP PUSH1 0x0 DUP1 DUP10 DUP2 MSTORE PUSH1 0x20 ADD SWAP1 DUP2 MSTORE PUSH1 0x20 ADD PUSH1 0x0 KECCAK256 PUSH1 0x0 DUP3 ADD MLOAD DUP2 PUSH1 0x0 ADD SWAP1 DUP1 MLOAD SWAP1 PUSH1 0x20 ADD SWAP1 PUSH2 0xB4C SWAP3 SWAP2 SWAP1 PUSH2 0xC07 JUMP JUMPDEST POP PUSH1 0x20 DUP3 ADD MLOAD DUP2 PUSH1 0x1 ADD SWAP1 DUP1 MLOAD SWAP1 PUSH1 0x20 ADD SWAP1 PUSH2 0xB69 SWAP3 SWAP2 SWAP1 PUSH2 0xC07 JUMP JUMPDEST POP PUSH1 0x40 DUP3 ADD MLOAD DUP2 PUSH1 0x2 ADD SWAP1 DUP1 MLOAD SWAP1 PUSH1 0x20 ADD SWAP1 PUSH2 0xB86 SWAP3 SWAP2 SWAP1 PUSH2 0xC07 JUMP JUMPDEST POP PUSH1 0x60 DUP3 ADD MLOAD DUP2 PUSH1 0x3 ADD SWAP1 DUP1 MLOAD SWAP1 PUSH1 0x20 ADD SWAP1 PUSH2 0xBA3 SWAP3 SWAP2 SWAP1 PUSH2 0xC07 JUMP JUMPDEST POP PUSH1 0x80 DUP3 ADD MLOAD DUP2 PUSH1 0x4 ADD SSTORE PUSH1 0xA0 DUP3 ADD MLOAD DUP2 PUSH1 0x5 ADD SSTORE SWAP1 POP POP PUSH32 0xC095BB55C137C645AF0208A55068DC614C53A8FCF828B01893AD60D0D6B9397E DUP8 DUP8 DUP8 DUP8 DUP8 DUP8 DUP8 PUSH1 0x40 MLOAD PUSH2 0xBF6 SWAP8 SWAP7 SWAP6 SWAP5 SWAP4 SWAP3 SWAP2 SWAP1 PUSH2 0x1196 JUMP JUMPDEST PUSH1 0x40 MLOAD DUP1 SWAP2 SUB SWAP1 LOG1 POP POP POP POP POP POP POP JUMP JUMPDEST DUP3 DUP1 SLOAD PUSH2 0xC13 SWAP1 PUSH2 0x138D JUMP JUMPDEST SWAP1 PUSH1 0x0 MSTORE PUSH1 0x20 PUSH1 0x0 KECCAK256 SWAP1 PUSH1 0x1F ADD PUSH1 0x20 SWAP1 DIV DUP2 ADD SWAP3 DUP3 PUSH2 0xC35 JUMPI PUSH1 0x0 DUP6 SSTORE PUSH2 0xC7C JUMP JUMPDEST DUP3 PUSH1 0x1F LT PUSH2 0xC4E JUMPI DUP1 MLOAD PUSH1 0xFF NOT AND DUP4 DUP1 ADD OR DUP6 SSTORE PUSH2 0xC7C JUMP JUMPDEST DUP3 DUP1 ADD PUSH1 0x1 ADD DUP6 SSTORE DUP3 ISZERO PUSH2 0xC7C JUMPI SWAP2 DUP3 ADD JUMPDEST DUP3 DUP2 GT ISZERO PUSH2 0xC7B JUMPI DUP3 MLOAD DUP3 SSTORE SWAP2 PUSH1 0x20 ADD SWAP2 SWAP1 PUSH1 0x1 ADD SWAP1 PUSH2 0xC60 JUMP JUMPDEST JUMPDEST POP SWAP1 POP PUSH2 0xC89 SWAP2 SWAP1 PUSH2 0xCCD JUMP JUMPDEST POP SWAP1 JUMP JUMPDEST POP DUP1 SLOAD PUSH2 0xC99 SWAP1 PUSH2 0x138D JUMP JUMPDEST PUSH1 0x0 DUP3 SSTORE DUP1 PUSH1 0x1F LT PUSH2 0xCAB JUMPI POP PUSH2 0xCCA JUMP JUMPDEST PUSH1 0x1F ADD PUSH1 0x20 SWAP1 DIV SWAP1 PUSH1 0x0 MSTORE PUSH1 0x20 PUSH1 0x0 KECCAK256 SWAP1 DUP2 ADD SWAP1 PUSH2 0xCC9 SWAP2 SWAP1 PUSH2 0xCCD JUMP JUMPDEST JUMPDEST POP JUMP JUMPDEST JUMPDEST DUP1 DUP3 GT ISZERO PUSH2 0xCE6 JUMPI PUSH1 0x0 DUP2 PUSH1 0x0 SWAP1 SSTORE POP PUSH1 0x1 ADD PUSH2 0xCCE JUMP JUMPDEST POP SWAP1 JUMP JUMPDEST PUSH1 0x0 PUSH2 0xCFD PUSH2 0xCF8 DUP5 PUSH2 0x1252 JUMP JUMPDEST PUSH2 0x1221 JUMP JUMPDEST SWAP1 POP DUP3 DUP2 MSTORE PUSH1 0x20 DUP2 ADD DUP5 DUP5 DUP5 ADD GT ISZERO PUSH2 0xD15 JUMPI PUSH1 0x0 DUP1 REVERT JUMPDEST PUSH2 0xD20 DUP5 DUP3 DUP6 PUSH2 0x1321 JUMP JUMPDEST POP SWAP4 SWAP3 POP POP POP JUMP JUMPDEST PUSH1 0x0 DUP3 PUSH1 0x1F DUP4 ADD SLT PUSH2 0xD39 JUMPI PUSH1 0x0 DUP1 REVERT JUMPDEST DUP2 CALLDATALOAD PUSH2 0xD49 DUP5 DUP3 PUSH1 0x20 DUP7 ADD PUSH2 0xCEA JUMP JUMPDEST SWAP2 POP POP SWAP3 SWAP2 POP POP JUMP JUMPDEST PUSH1 0x0 DUP2 CALLDATALOAD SWAP1 POP PUSH2 0xD61 DUP2 PUSH2 0x14A6 JUMP JUMPDEST SWAP3 SWAP2 POP POP JUMP JUMPDEST PUSH1 0x0 PUSH1 0x20 DUP3 DUP5 SUB SLT ISZERO PUSH2 0xD79 JUMPI PUSH1 0x0 DUP1 REVERT JUMPDEST PUSH1 0x0 PUSH2 0xD87 DUP5 DUP3 DUP6 ADD PUSH2 0xD52 JUMP JUMPDEST SWAP2 POP POP SWAP3 SWAP2 POP POP JUMP JUMPDEST PUSH1 0x0 DUP1 PUSH1 0x0 DUP1 PUSH1 0x0 DUP1 PUSH1 0xC0 DUP8 DUP10 SUB SLT ISZERO PUSH2 0xDA9 JUMPI PUSH1 0x0 DUP1 REVERT JUMPDEST PUSH1 0x0 PUSH2 0xDB7 DUP10 DUP3 DUP11 ADD PUSH2 0xD52 JUMP JUMPDEST SWAP7 POP POP PUSH1 0x20 DUP8 ADD CALLDATALOAD PUSH8 0xFFFFFFFFFFFFFFFF DUP2 GT ISZERO PUSH2 0xDD4 JUMPI PUSH1 0x0 DUP1 REVERT JUMPDEST PUSH2 0xDE0 DUP10 DUP3 DUP11 ADD PUSH2 0xD28 JUMP JUMPDEST SWAP6 POP POP PUSH1 0x40 DUP8 ADD CALLDATALOAD PUSH8 0xFFFFFFFFFFFFFFFF DUP2 GT ISZERO PUSH2 0xDFD JUMPI PUSH1 0x0 DUP1 REVERT JUMPDEST PUSH2 0xE09 DUP10 DUP3 DUP11 ADD PUSH2 0xD28 JUMP JUMPDEST SWAP5 POP POP PUSH1 0x60 DUP8 ADD CALLDATALOAD PUSH8 0xFFFFFFFFFFFFFFFF DUP2 GT ISZERO PUSH2 0xE26 JUMPI PUSH1 0x0 DUP1 REVERT JUMPDEST PUSH2 0xE32 DUP10 DUP3 DUP11 ADD PUSH2 0xD28 JUMP JUMPDEST SWAP4 POP POP PUSH1 0x80 DUP8 ADD CALLDATALOAD PUSH8 0xFFFFFFFFFFFFFFFF DUP2 GT ISZERO PUSH2 0xE4F JUMPI PUSH1 0x0 DUP1 REVERT JUMPDEST PUSH2 0xE5B DUP10 DUP3 DUP11 ADD PUSH2 0xD28 JUMP JUMPDEST SWAP3 POP POP PUSH1 0xA0 PUSH2 0xE6C DUP10 DUP3 DUP11 ADD PUSH2 0xD52 JUMP JUMPDEST SWAP2 POP POP SWAP3 SWAP6 POP SWAP3 SWAP6 POP SWAP3 SWAP6 JUMP JUMPDEST PUSH1 0x0 PUSH2 0xE85 DUP4 DUP4 PUSH2 0x1043 JUMP JUMPDEST PUSH1 0x20 DUP4 ADD SWAP1 POP SWAP3 SWAP2 POP POP JUMP JUMPDEST PUSH1 0x0 PUSH2 0xE9C DUP3 PUSH2 0x1292 JUMP JUMPDEST PUSH2 0xEA6 DUP2 DUP6 PUSH2 0x12B5 JUMP JUMPDEST SWAP4 POP PUSH2 0xEB1 DUP4 PUSH2 0x1282 JUMP JUMPDEST DUP1 PUSH1 0x0 JUMPDEST DUP4 DUP2 LT ISZERO PUSH2 0xEE2 JUMPI DUP2 MLOAD PUSH2 0xEC9 DUP9 DUP3 PUSH2 0xE79 JUMP JUMPDEST SWAP8 POP PUSH2 0xED4 DUP4 PUSH2 0x12A8 JUMP JUMPDEST SWAP3 POP POP PUSH1 0x1 DUP2 ADD SWAP1 POP PUSH2 0xEB5 JUMP JUMPDEST POP DUP6 SWAP4 POP POP POP POP SWAP3 SWAP2 POP POP JUMP JUMPDEST PUSH2 0xEF8 DUP2 PUSH2 0x130B JUMP JUMPDEST DUP3 MSTORE POP POP JUMP JUMPDEST PUSH1 0x0 PUSH2 0xF09 DUP3 PUSH2 0x129D JUMP JUMPDEST PUSH2 0xF13 DUP2 DUP6 PUSH2 0x12C6 JUMP JUMPDEST SWAP4 POP PUSH2 0xF23 DUP2 DUP6 PUSH1 0x20 DUP7 ADD PUSH2 0x1330 JUMP JUMPDEST PUSH2 0xF2C DUP2 PUSH2 0x1495 JUMP JUMPDEST DUP5 ADD SWAP2 POP POP SWAP3 SWAP2 POP POP JUMP JUMPDEST PUSH1 0x0 PUSH2 0xF44 PUSH1 0x27 DUP4 PUSH2 0x12C6 JUMP JUMPDEST SWAP2 POP PUSH32 0x50726F647563742077697468207468652073616D6520494420616C7265616479 PUSH1 0x0 DUP4 ADD MSTORE PUSH32 0x2065786973747300000000000000000000000000000000000000000000000000 PUSH1 0x20 DUP4 ADD MSTORE PUSH1 0x40 DUP3 ADD SWAP1 POP SWAP2 SWAP1 POP JUMP JUMPDEST PUSH1 0x0 PUSH2 0xFAA PUSH1 0x13 DUP4 PUSH2 0x12C6 JUMP JUMPDEST SWAP2 POP PUSH32 0x496E76616C6964207472616E73616374696F6E00000000000000000000000000 PUSH1 0x0 DUP4 ADD MSTORE PUSH1 0x20 DUP3 ADD SWAP1 POP SWAP2 SWAP1 POP JUMP JUMPDEST PUSH1 0x0 PUSH2 0xFEA PUSH1 0x28 DUP4 PUSH2 0x12C6 JUMP JUMPDEST SWAP2 POP PUSH32 0x50726F6475637420776974682074686520676976656E20494420646F6573206E PUSH1 0x0 DUP4 ADD MSTORE PUSH32 0x6F74206578697374000000000000000000000000000000000000000000000000 PUSH1 0x20 DUP4 ADD MSTORE PUSH1 0x40 DUP3 ADD SWAP1 POP SWAP2 SWAP1 POP JUMP JUMPDEST PUSH2 0x104C DUP2 PUSH2 0x1317 JUMP JUMPDEST DUP3 MSTORE POP POP JUMP JUMPDEST PUSH2 0x105B DUP2 PUSH2 0x1317 JUMP JUMPDEST DUP3 MSTORE POP POP JUMP JUMPDEST PUSH1 0x0 PUSH1 0x20 DUP3 ADD SWAP1 POP DUP2 DUP2 SUB PUSH1 0x0 DUP4 ADD MSTORE PUSH2 0x107B DUP2 DUP5 PUSH2 0xE91 JUMP JUMPDEST SWAP1 POP SWAP3 SWAP2 POP POP JUMP JUMPDEST PUSH1 0x0 PUSH1 0x20 DUP3 ADD SWAP1 POP PUSH2 0x1098 PUSH1 0x0 DUP4 ADD DUP5 PUSH2 0xEEF JUMP JUMPDEST SWAP3 SWAP2 POP POP JUMP JUMPDEST PUSH1 0x0 PUSH1 0xC0 DUP3 ADD SWAP1 POP DUP2 DUP2 SUB PUSH1 0x0 DUP4 ADD MSTORE PUSH2 0x10B8 DUP2 DUP10 PUSH2 0xEFE JUMP JUMPDEST SWAP1 POP DUP2 DUP2 SUB PUSH1 0x20 DUP4 ADD MSTORE PUSH2 0x10CC DUP2 DUP9 PUSH2 0xEFE JUMP JUMPDEST SWAP1 POP DUP2 DUP2 SUB PUSH1 0x40 DUP4 ADD MSTORE PUSH2 0x10E0 DUP2 DUP8 PUSH2 0xEFE JUMP JUMPDEST SWAP1 POP DUP2 DUP2 SUB PUSH1 0x60 DUP4 ADD MSTORE PUSH2 0x10F4 DUP2 DUP7 PUSH2 0xEFE JUMP JUMPDEST SWAP1 POP PUSH2 0x1103 PUSH1 0x80 DUP4 ADD DUP6 PUSH2 0x1052 JUMP JUMPDEST PUSH2 0x1110 PUSH1 0xA0 DUP4 ADD DUP5 PUSH2 0x1052 JUMP JUMPDEST SWAP8 SWAP7 POP POP POP POP POP POP POP JUMP JUMPDEST PUSH1 0x0 PUSH1 0x20 DUP3 ADD SWAP1 POP DUP2 DUP2 SUB PUSH1 0x0 DUP4 ADD MSTORE PUSH2 0x1134 DUP2 PUSH2 0xF37 JUMP JUMPDEST SWAP1 POP SWAP2 SWAP1 POP JUMP JUMPDEST PUSH1 0x0 PUSH1 0x20 DUP3 ADD SWAP1 POP DUP2 DUP2 SUB PUSH1 0x0 DUP4 ADD MSTORE PUSH2 0x1154 DUP2 PUSH2 0xF9D JUMP JUMPDEST SWAP1 POP SWAP2 SWAP1 POP JUMP JUMPDEST PUSH1 0x0 PUSH1 0x20 DUP3 ADD SWAP1 POP DUP2 DUP2 SUB PUSH1 0x0 DUP4 ADD MSTORE PUSH2 0x1174 DUP2 PUSH2 0xFDD JUMP JUMPDEST SWAP1 POP SWAP2 SWAP1 POP JUMP JUMPDEST PUSH1 0x0 PUSH1 0x20 DUP3 ADD SWAP1 POP PUSH2 0x1190 PUSH1 0x0 DUP4 ADD DUP5 PUSH2 0x1052 JUMP JUMPDEST SWAP3 SWAP2 POP POP JUMP JUMPDEST PUSH1 0x0 PUSH1 0xE0 DUP3 ADD SWAP1 POP PUSH2 0x11AB PUSH1 0x0 DUP4 ADD DUP11 PUSH2 0x1052 JUMP JUMPDEST DUP2 DUP2 SUB PUSH1 0x20 DUP4 ADD MSTORE PUSH2 0x11BD DUP2 DUP10 PUSH2 0xEFE JUMP JUMPDEST SWAP1 POP DUP2 DUP2 SUB PUSH1 0x40 DUP4 ADD MSTORE PUSH2 0x11D1 DUP2 DUP9 PUSH2 0xEFE JUMP JUMPDEST SWAP1 POP DUP2 DUP2 SUB PUSH1 0x60 DUP4 ADD MSTORE PUSH2 0x11E5 DUP2 DUP8 PUSH2 0xEFE JUMP JUMPDEST SWAP1 POP DUP2 DUP2 SUB PUSH1 0x80 DUP4 ADD MSTORE PUSH2 0x11F9 DUP2 DUP7 PUSH2 0xEFE JUMP JUMPDEST SWAP1 POP PUSH2 0x1208 PUSH1 0xA0 DUP4 ADD DUP6 PUSH2 0x1052 JUMP JUMPDEST PUSH2 0x1215 PUSH1 0xC0 DUP4 ADD DUP5 PUSH2 0x1052 JUMP JUMPDEST SWAP9 SWAP8 POP POP POP POP POP POP POP POP JUMP JUMPDEST PUSH1 0x0 PUSH1 0x40 MLOAD SWAP1 POP DUP2 DUP2 ADD DUP2 DUP2 LT PUSH8 0xFFFFFFFFFFFFFFFF DUP3 GT OR ISZERO PUSH2 0x1248 JUMPI PUSH2 0x1247 PUSH2 0x1466 JUMP JUMPDEST JUMPDEST DUP1 PUSH1 0x40 MSTORE POP SWAP2 SWAP1 POP JUMP JUMPDEST PUSH1 0x0 PUSH8 0xFFFFFFFFFFFFFFFF DUP3 GT ISZERO PUSH2 0x126D JUMPI PUSH2 0x126C PUSH2 0x1466 JUMP JUMPDEST JUMPDEST PUSH1 0x1F NOT PUSH1 0x1F DUP4 ADD AND SWAP1 POP PUSH1 0x20 DUP2 ADD SWAP1 POP SWAP2 SWAP1 POP JUMP JUMPDEST PUSH1 0x0 DUP2 SWAP1 POP PUSH1 0x20 DUP3 ADD SWAP1 POP SWAP2 SWAP1 POP JUMP JUMPDEST PUSH1 0x0 DUP2 MLOAD SWAP1 POP SWAP2 SWAP1 POP JUMP JUMPDEST PUSH1 0x0 DUP2 MLOAD SWAP1 POP SWAP2 SWAP1 POP JUMP JUMPDEST PUSH1 0x0 PUSH1 0x20 DUP3 ADD SWAP1 POP SWAP2 SWAP1 POP JUMP JUMPDEST PUSH1 0x0 DUP3 DUP3 MSTORE PUSH1 0x20 DUP3 ADD SWAP1 POP SWAP3 SWAP2 POP POP JUMP JUMPDEST PUSH1 0x0 DUP3 DUP3 MSTORE PUSH1 0x20 DUP3 ADD SWAP1 POP SWAP3 SWAP2 POP POP JUMP JUMPDEST PUSH1 0x0 PUSH2 0x12E2 DUP3 PUSH2 0x1317 JUMP JUMPDEST SWAP2 POP PUSH2 0x12ED DUP4 PUSH2 0x1317 JUMP JUMPDEST SWAP3 POP DUP3 DUP3 LT ISZERO PUSH2 0x1300 JUMPI PUSH2 0x12FF PUSH2 0x1408 JUMP JUMPDEST JUMPDEST DUP3 DUP3 SUB SWAP1 POP SWAP3 SWAP2 POP POP JUMP JUMPDEST PUSH1 0x0 DUP2 ISZERO ISZERO SWAP1 POP SWAP2 SWAP1 POP JUMP JUMPDEST PUSH1 0x0 DUP2 SWAP1 POP SWAP2 SWAP1 POP JUMP JUMPDEST DUP3 DUP2 DUP4 CALLDATACOPY PUSH1 0x0 DUP4 DUP4 ADD MSTORE POP POP POP JUMP JUMPDEST PUSH1 0x0 JUMPDEST DUP4 DUP2 LT ISZERO PUSH2 0x134E JUMPI DUP1 DUP3 ADD MLOAD DUP2 DUP5 ADD MSTORE PUSH1 0x20 DUP2 ADD SWAP1 POP PUSH2 0x1333 JUMP JUMPDEST DUP4 DUP2 GT ISZERO PUSH2 0x135D JUMPI PUSH1 0x0 DUP5 DUP5 ADD MSTORE JUMPDEST POP POP POP POP JUMP JUMPDEST PUSH1 0x0 PUSH2 0x136E DUP3 PUSH2 0x1317 JUMP JUMPDEST SWAP2 POP PUSH1 0x0 DUP3 EQ ISZERO PUSH2 0x1382 JUMPI PUSH2 0x1381 PUSH2 0x1408 JUMP JUMPDEST JUMPDEST PUSH1 0x1 DUP3 SUB SWAP1 POP SWAP2 SWAP1 POP JUMP JUMPDEST PUSH1 0x0 PUSH1 0x2 DUP3 DIV SWAP1 POP PUSH1 0x1 DUP3 AND DUP1 PUSH2 0x13A5 JUMPI PUSH1 0x7F DUP3 AND SWAP2 POP JUMPDEST PUSH1 0x20 DUP3 LT DUP2 EQ ISZERO PUSH2 0x13B9 JUMPI PUSH2 0x13B8 PUSH2 0x1437 JUMP JUMPDEST JUMPDEST POP SWAP2 SWAP1 POP JUMP JUMPDEST PUSH1 0x0 PUSH2 0x13CA DUP3 PUSH2 0x1317 JUMP JUMPDEST SWAP2 POP PUSH32 0xFFFFFFFFFFFFFFFFFFFFFFFFFFFFFFFFFFFFFFFFFFFFFFFFFFFFFFFFFFFFFFFF DUP3 EQ ISZERO PUSH2 0x13FD JUMPI PUSH2 0x13FC PUSH2 0x1408 JUMP JUMPDEST JUMPDEST PUSH1 0x1 DUP3 ADD SWAP1 POP SWAP2 SWAP1 POP JUMP JUMPDEST PUSH32 0x4E487B7100000000000000000000000000000000000000000000000000000000 PUSH1 0x0 MSTORE PUSH1 0x11 PUSH1 0x4 MSTORE PUSH1 0x24 PUSH1 0x0 REVERT JUMPDEST PUSH32 0x4E487B7100000000000000000000000000000000000000000000000000000000 PUSH1 0x0 MSTORE PUSH1 0x22 PUSH1 0x4 MSTORE PUSH1 0x24 PUSH1 0x0 REVERT JUMPDEST PUSH32 0x4E487B7100000000000000000000000000000000000000000000000000000000 PUSH1 0x0 MSTORE PUSH1 0x41 PUSH1 0x4 MSTORE PUSH1 0x24 PUSH1 0x0 REVERT JUMPDEST PUSH1 0x0 PUSH1 0x1F NOT PUSH1 0x1F DUP4 ADD AND SWAP1 POP SWAP2 SWAP1 POP JUMP JUMPDEST PUSH2 0x14AF DUP2 PUSH2 0x1317 JUMP JUMPDEST DUP2 EQ PUSH2 0x14BA JUMPI PUSH1 0x0 DUP1 REVERT JUMPDEST POP JUMP INVALID LOG2 PUSH5 0x6970667358 0x22 SLT KECCAK256 SMOD SWAP13 BALANCE LOG1 CALLER 0x2F 0xC2 CALLCODE 0x2F 0xAA 0xE8 DUP2 ADD DUP2 0xA8 MUL PUSH10 0xB3850733B8F3C939B0BE 0x49 DUP12 0xB2 0xEB 0xC1 PUSH5 0x736F6C6343 STOP ADDMOD STOP STOP CALLER "},"methodIdentifiers":{"addProduct(uint256,string,string,string,string,uint256)":"06c61343","authenticateProduct(uint256)":"c1ccd96e","getAuthenticationCounter()":"bdd01d23","getProduct(uint256)":"b9db15b4","getProductCount()":"4a348da9","getProductIds()":"47428e7b","removeProduct(uint256)":"5ee95cae","updateProduct(uint256,string,string,string,string,uint256)":"fd77d9bc"}}}}}